:100000000C9454020C9485020C9485020C94850285
:100010000C9485020C9485020C9485020C94850244
:100020000C9485020C9485020C9485020C94850234
:100030000C9485020C9425130C9485020C94850273
:100040000C9485020C946F140C9485020C94850218
:100050000C9485020C9485020C9485020C94DB129E
:100060000C9485020C94AF130C9485130C948502A8
:100070000C9485020C9485020C9485020C948502E4
:100080000C9441140C9485020C9485020C94850206
:100090000C9485020C9485020C9485020C948502C4
:1000A0000C9485020C9485020C9413140C94850214
:1000B0000C9485020C9485020C9485020C94E51333
:1000C0000C9485020C9485020C9485020C94850294
:1000D0000C9485020C9485020C9485020C94850284
:1000E0000C9485020C94CF060C949D040C944C0443
:1000F0000C9400070C9463030C949A030C949106DF
:100100000C9438070C9459030C94DE040C947E0371
:100110000C9482030C945B040C94AC070C94940331
:100120000C94D4040C94F2060C94CA040C947F042E
:100130000C9499030C9486030C9474030C946F0430
:100140000C9444040C9465040C9493040C94AC0437
:100150000C9478030C948C030C94C0040C945F03EF
:100160000C940E180C94B6040C9490030C94510447
:100170000C941D150C9477040C949E030C94670347
:100180000C946E030C946B030C9489040C94DE069F
:1001900000407A10F35A00A0724E18090010A5D43E
:1001A000E80000E87648170000E40B54020000CA9B
:1001B0009A3B000000E1F5050000809698000000E1
:1001C00040420F000000A086010000001027000040
:1001D0000000E803000000006400000000000A00C6
:1001E000000000000100000000002C76D888DC67C9
:1001F0004F0823DFC1DFAE59E1B1B796E5E3E45321
:10020000C63AE651997696E8E6C28426EB898C9B3D
:1002100062ED407C6FFCEFBC9C9F40F2BAA56FA5DD
:10022000F490055A2AF75C936B6CF9676DC11BFC5F
:10023000E0E40D47FEF520E6B500D0ED902E03007A
:10024000943577050080841E080000204E0A0000C7
:1002500000C80C333333330F986E12831141EF8D86
:100260002114893BE65516CFFEE6DB18D1844B38C6
:100270001BF77C1D901DA4BBE424203284725E22F7
:100280008100C9F124ECA1E53D277B226F6B223A66
:10029000747275652C22636F6D6D616E64223A22F3
:1002A00000227D007B226F6B223A66616C73652CA5
:1002B000226572726F72223A2200027B226F6B22D9
:1002C0003A747275652C226576656E74223A2272D4
:1002D00065616479222C22646576696365223A221D
:1002E00061726475696E6F222C2262617564223AB4
:1002F0003131353230307D007B226F6B223A74729F
:1003000075652C22636F6D6D616E64223A224745DC
:10031000543A494E464F222C226465766963652221
:100320003A2261726475696E6F222C226669726D61
:1003300077617265223A2248572D574F524B4245FA
:100340004E4348222C2276657273696F6E223A22E0
:10035000312E302E30227D007B226F6B223A747258
:1003600075652C22636F6D6D616E64223A2250496F
:100370004E47222C226576656E74223A22706F6E8B
:1003800067227D0000002100240027002A002D00A4
:100390003000330001010000040107010A010000E0
:1003A0002200250028002B002E003100340002011D
:1003B0000000050108010B0100000A0B02090C0DE9
:1003C0000E08070304010000000000000000000008
:1003D000000000000000000000000000000000001D
:1003E00000000000121110000000000000000000DA
:1003F00000000000000000000000000000000000FD
:1004000020002300260029002C002F0032000001CC
:100410000000030106010901050505050705080897
:100420000808020202020A0A08080404040401017E
:100430000101010101010303030303030303040793
:1004400007070C0C0C0C0C0C0C0C0202020206062A
:100450000606060606060B0B0B0B0B0B0B0B01021D
:1004600010202008081020401020408002010201C6
:10047000080402010102040810204080804020107E
:1004800008040201800402018040201008040201D7
:10049000080402010102040810204080010204083F
:1004A000102040801D150E1811241FBECFEFD1E281
:1004B000DEBFCDBF00E00CBF13E0A0E0B2E0ECE88F
:1004C000FFE300E00BBF02C007900D92A03AB10716
:1004D000D9F725E0A0EAB3E001C01D92A632B20729
:1004E000E1F712E0C3E5D2E000E006C02197010980
:1004F000802FFE010E94651DC235D10780E00807EC
:10050000A9F70E949B150C94B41F0C940000CF9285
:10051000DF92EF92FF92CF93DF93B0911605A0E0A8
:100520008111AB2F8091170590E0880F991FAC01C6
:1005300042505C4FC0901C05D0901D05E0901E05F8
:10054000F0901F0530E020E0FA01C591D491E881D8
:10055000B90190E080E0EB23EA130AC02F5F3F4F20
:100560006C157D058E059F0578F36FEF7FEFCB014E
:10057000DF91CF91FF90EF90DF90CF900895CF92D1
:10058000DF92EF92FF92DC01A03282E0B807D4F54F
:10059000A53BB10514F0A4EBB0E040910D0528E8AF
:1005A00030E0241B310947FD3395220F331F220F02
:1005B000331F6901330FEE08FF0840910E0528E54F
:1005C00032E0241B310947FD3395220F331F220FE0
:1005D000331F032E000C440B550B2C193D094E09FB
:1005E0005F09B7FF02C0B0E0A0E00E94781C24EBD6
:1005F00030E040E050E00E944E1CC20ED31EE41ECC
:10060000F51ED601E0910C05E03380F520910D0533
:1006100088E890E0821B910927FD9395880F991F28
:10062000880F991FA817B90784F020910E0588E557
:1006300092E0821B910927FD9395880F991F880FDF
:10064000991FA817B9070CF4CD010297880F991FBD
:100650004FB7F8942E2F30E0F901EE0FFF1FE20F95
:10066000F31FEB58FB4F928381834FBFFF90EF90B6
:10067000DF90CF9008958150823108F05AC0E82F62
:10068000F0E08827E95BFC4F8F4F0C94651D6703F2
:100690006B0359035F03630399036E0374037803C9
:1006A0007E03820386038C039003990394039A03C9
:1006B0009E03809180008F778093800008958091C1
:1006C00080008F7DF9CF80918000877FF5CF84B542
:1006D0008F7784BD089584B58F7DFBCF8091B00066
:1006E0008F778093B00008958091B0008F7DF9CF0F
:1006F000809190008F778093900008958091900072
:100700008F7DF9CF80919000877FF5CF8091A000F9
:100710008F778093A00008958091A0008F7DF9CFFE
:100720008091A000877FF5CF809120018F77809303
:1007300020010895809120018F7DF9CF80912001C3
:10074000877FF5CF1F93CF93DF93282F30E0F901F8
:10075000E854FC4F8491F901E25AFB4FD491F9011E
:10076000E85EFB4FC491CC23A9F0162F81110E94A3
:100770003B03EC2FF0E0EE0FFF1FE256FC4FA5917C
:10078000B4918FB7F894EC91111108C0D095DE2385
:10079000DC938FBFDF91CF911F910895DE2BF8CFAF
:1007A000CF93DF9390E0FC01E25AFB4F2491885EE7
:1007B0009B4FFC0184918823C9F090E0880F991F1A
:1007C000FC01EC57FC4FA591B491FC01E256FC4FA3
:1007D000C591D49161110DC09FB7F8948C9120956B
:1007E00082238C938881282328839FBFDF91CF9118
:1007F0000895623051F49FB7F8943C91822F809510
:1008000083238C93E8812E2BEFCF8FB7F894EC9154
:100810002E2B2C938FBFEACF1F93CF93DF93182FEC
:10082000EB0161E00E94D003209739F460E0812F52
:10083000DF91CF911F910C94A203CF3FD10511F40A
:1008400061E0F5CFE12FF0E0E854FC4FE491E15096
:10085000E23108F0B3C0F0E08827EE5CFB4F8F4F29
:100860000C94651D44044C0451045B046504DE04CF
:100870006F0477047F04890493049D04AC04B604D8
:10088000DE04C004CA04D40484B5806884BDC7BD36
:10089000DF91CF911F91089584B5806284BDC8BD5A
:1008A000F7CF80918000806880938000D09389008A
:1008B000C0938800EDCF809180008062809380009B
:1008C000D0938B00C0938A00E3CF80918000886032
:1008D00080938000D0938D00C0938C00D9CF8091FD
:1008E000B00080688093B000C093B300D1CF8091F6
:1008F000B00080628093B000C093B400C9CF8091F3
:100900009000806880939000D0939900C0939800E5
:10091000BFCF80919000806280939000D0939B0025
:10092000C0939A00B5CF809190008860809390002A
:10093000D0939D00C0939C00ABCF8091A0008068B5
:100940008093A0008091A0008F7B8093A000D09323
:10095000A900C093A8009CCF8091A00080628093E2
:10096000A000D093AB00C093AA0092CF8091A000CA
:1009700088608093A000D093AD00C093AC0088CF76
:1009800080912001806880932001D0932901C09339
:1009900028017ECF80912001806280932001D09336
:1009A0002B01C0932A0174CF80912001886080932D
:1009B0002001D0932D01C0932C016ACFC038D105FE
:1009C0000CF03ECF33CF3FB7F8948091D403909191
:1009D000D503A091D603B091D70326B5A89B05C037
:1009E0002F3F19F00196A11DB11D3FBFBA2FA92FAE
:1009F000982F8827BC01CD01620F711D811D911DAB
:100A000042E0660F771F881F991F4A95D1F7089516
:100A10008F929F92AF92BF92CF92DF92EF92FF920E
:100A20004B015C010E94E3046B017C010E94E30422
:100A30006C197D098E099F09683E734081059105F7
:100A4000A8F321E0821A9108A108B10888EEC80E27
:100A500083E0D81EE11CF11C81149104A104B104AF
:100A600029F7FF90EF90DF90CF90BF90AF909F90CD
:100A70008F9008952FB7F8946091D0037091D103AF
:100A80008091D2039091D3032FBF0895CF92DF922C
:100A9000EF92FF920F931F93CF93DF93CDB7DEB703
:100AA000C054D1400FB6F894DEBF0FBECDBF0E9438
:100AB0003A05009118051091190520911A053091F9
:100AC0001B056B017C01C01AD10AE20AF30A9701E7
:100AD0008601003D17402105310590F480912005E5
:100AE000C05CDE4F0FB6F894DEBF0FBECDBFDF9106
:100AF000CF911F910F91FF90EF90DF90CF900895CD
:100B0000609318057093190580931A0590931B053F
:100B100010921305109212051092110510921005F3
:100B200010920F0562E0809114050E94D00361E0ED
:100B300070E080E090E00E94080561E0809114057B
:100B40000E94D00360E0809114050E94A20380916E
:100B500015058551823020F58BE291E10197F1F77F
:100B600062E0809114050E94D0038091210590E0FD
:100B70008230910538F0880F991F880F991F0597CB
:100B80000197F1F7F89480E00E9487026F3F7F4F52
:100B90008F4F9F4F61F410922005789480E0A0CF92
:100BA00064E170E080E090E00E940805D9CF81E028
:100BB0000E9487026F3F7F4F8F4F9F4F61F38E01DF
:100BC0000F5F1F4F6E012FEBC21A2EEFD20A780172
:100BD00080E00E948702F7016083718382839383A0
:100BE00081E00E948702F70164837583868397837F
:100BF000F8E0EF0EF11CEC14FD0451F7789430E0AE
:100C000020E0F801C080D180E280F38044815581EA
:100C100066817781FFEFCF16DF06EF06FF0631F022
:100C20004F3F8FEF58076807780719F41092200597
:100C3000B5CFF90183E0F595E7958A95E1F7E15F96
:100C4000FA4F8081880FC416D506E606F70610F124
:100C500080832F5F3F4F085F1F4F2832310589F691
:100C60004091130520910F0580911005280F33271F
:100C7000331F80911105280F311D80911205820FBD
:100C8000932F911D99274817190681F681E08093CB
:100C9000200526CF8160DCCF9091000289130DC022
:100CA000EAEBF2E0E4919FEF90930002E230E1F092
:100CB00038F4EE2381F0E13089F060E00C94A20377
:100CC000E43049F110F1E530C1F7909173009D7F58
:100CD00090937300F2CF10926E00EFCF90916F005F
:100CE0009D7F90936F00E9CF909170009D7F9093CE
:100CF000700091E09093B0009091B100987F946063
:100D00009093B1001092B300D8CF909171009D7F65
:100D100090937100D2CF909172009D7F909372005A
:100D2000CCCFAF92BF92CF92DF92EF92FF920F9310
:100D30001F93CF93DF936C017B018B01040F151F71
:100D4000EB015E01AE18BF08C017D10759F06991D9
:100D5000D601ED91FC910190F081E02DC60119952D
:100D6000892B79F7C501DF91CF911F910F91FF90EA
:100D7000EF90DF90CF90BF90AF90089542E050E0A9
:100D800069E172E088ED93E00C949106FC014481E6
:100D900055816081718188ED93E00C949106FC018E
:100DA000538D448D252F30E0842F90E0821B930BD0
:100DB000541710F0CF96089501970895FC01918D76
:100DC000828D981761F0A28DAE0FBF2FB11D5D9679
:100DD0008C91928D9F5F9F73928F90E008958FEF1B
:100DE0009FEF0895FC01918D828D981731F0828DCF
:100DF000E80FF11D858D90E008958FEF9FEF089526
:100E0000FC01918D228D892F90E0805C9F4F821B89
:100E100091098F739927089588ED93E00E94000748
:100E200021E0892B09F420E0822F0895FC01A48D94
:100E3000A80FB92FB11DA35ABF4F2C91848D90E0FC
:100E400001968F739927848FA689B7892C93A089DF
:100E5000B1898C91837080648C93938D848D981369
:100E600006C00288F389E02D80818F7D80830895FC
:100E7000EF92FF920F931F93CF93DF93EC0181E0EA
:100E8000888F9B8D8C8D98131AC0E889F989808191
:100E900085FF15C09FB7F894EE89FF896083E889C4
:100EA000F98980818370806480839FBF81E090E0B6
:100EB000DF91CF911F910F91FF90EF900895F62E43
:100EC0000B8D10E00F5F1F4F0F731127E02E8C8DDD
:100ED0008E110CC00FB607FCFACFE889F989808122
:100EE00085FFF5CFCE010E941607F1CFEB8DEC0FF9
:100EF000FD2FF11DE35AFF4FF0829FB7F8940B8F3F
:100F0000EA89FB8980818062CFCF0F931F93CF93B3
:100F1000DF938C01D0E0C0E0F801EC0FFD1F64917D
:100F2000662341F088ED93E00E943807892B11F089
:100F30002196F2CFCE01DF91CF911F910F910895AD
:100F4000CF93DF930E948507EC010E94BE068C0FB1
:100F50009D1FDF91CF910895CF93DF93EC01888D92
:100F60008823B9F0AA89BB89E889F9898C9185FD24
:100F700003C0808186FD0DC00FB607FCF7CF8C91B2
:100F800085FFF2CF808185FFEDCFCE010E9416074D
:100F9000E9CFDF91CF91089580E090E0892B29F08F
:100FA0000E940C0781110E94000080E090E0892BD4
:100FB00049F080E090E0892B29F00E940000811127
:100FC0000E94000080E090E0892B49F080E090E0F2
:100FD000892B29F00E94000081110E94000080E00E
:100FE00090E0892B49F080E090E0892B29F00E9465
:100FF000000081110C9400000895AF92BF92CF922F
:10100000DF92EF92FF920F931F93CF93DF936B01C9
:101010007A01EC01C754DC4F28813CE0389F800105
:10102000399F100D1124A0900505B12C27FF1FC07A
:10103000FB011182108288818F5F888388819801EB
:10104000280F311D87FD3A95F6012A153B051CF442
:1010500088818C30C4F180819181049680349C49D0
:1010600008F473C0F60180819181049670C0888174
:101070009801280F311D87FD3A952A153B05DCF6AE
:101080008881A801480F511D87FD5A95FA01EE0F7E
:10109000FF1FE40FF51FEB58FB4F808186FFCBCF7E
:1010A0008881F801E80FF11D87FDFA95CF01EE0F59
:1010B000FF1FE80FF91FEB58FB4F808160E08F7333
:1010C0000E94A203B8CF808191812881A801420F9C
:1010D000511D27FD5A959A01FA01EE0FFF1FE20FED
:1010E000F31FEB58FB4F21813281820F931FF701D1
:1010F0009183808388819801280F311D87FD3A955F
:10110000F901EE0FFF1FE20FF31FEB58FB4F808139
:1011100086FF22C08881080F111D87FD1A95F801EE
:10112000EE0FFF1FE00FF11FEB58FB4F808161E0D6
:101130008F73DF91CF911F910F91FF90EF90DF9010
:10114000CF90BF90AF900C94A20380E49CE9F7018C
:10115000918380838FEF8883DF91CF911F910F91CF
:10116000FF90EF90DF90CF90BF90AF9008950F93D6
:101170001F93CF93DF938C01EB018AE892E00E94EA
:101180008507C8010E94C60662E288ED93E00E94CE
:1011900038078C819D81892B41F06CE288ED93E0CA
:1011A0000E943807CE010E94C6066DE788ED93E0E5
:1011B0000E943807DF91CF911F910F910C94BE06CA
:1011C000CF93DF93EC0188819981009711F00E9401
:1011D000101E198218821D821C821B821A82DF91C6
:1011E000CF910895FC0180819181009711F00C94BA
:1011F000101E0895AF92BF92CF92DF92EF92FF92AE
:101200000F931F93CF93DF93DC01CD90DC90119768
:10121000C114D10439F01496CD91DC918C01760182
:10122000209761F4DF91CF911F910F91FF90EF9084
:10123000DF90CF90BF90AF90089575015701BFEF39
:10124000AB1ABB0AF7018081082E000C990B0E9493
:10125000131B892B91F72197CC0DDD1D8881082E5A
:10126000000C990B0E94131B892B29F0CE15DF056A
:1012700010F02197F3CFAE014F5F5F4F4E195F091A
:10128000D80115965C934E931497CE14DF0420F486
:10129000B701C6010E94821FD801ED91FC91119700
:1012A00014968D919C91E80FF91F1082BBCFFB0122
:1012B00044815581FC01248135812417350778F05C
:1012C00080819181009759F0FB01608171816115E6
:1012D000710529F00E94A61F21E0892B09F020E06A
:1012E000822F0895FC0124813581232B39F421E0DC
:1012F000FB018081882349F020E007C08081918133
:101300000E94961F21E0892BB9F7822F08950F9331
:101310001F93CF93DF93EC0188819981009759F057
:101320002A813B812617370730F081E0DF91CF918A
:101330001F910F9108958B016F5F7F4F0E94991E3F
:10134000009759F0998388831B830A832C813D8100
:10135000232B59F7FC011082E8CF80E0E7CFEF9212
:10136000FF920F931F93CF93DF936115710541F4A3
:1013700080E0DF91CF911F910F91FF90EF90089542
:1013800041155105B1F07B01EC010C811D81040F69
:10139000151FB8010E948709882351F328813981DC
:1013A0008C819D81B701820F931F0E949F1F1D8317
:1013B0000C8381E0DECFCF93DF93EC01FB0144810E
:1013C0005581608171810E94AF09811103C0CE01F6
:1013D0000E94E008CE01DF91CF910895EF92FF9235
:1013E0000F931F93CF93DF93EC017B018A01BA0126
:1013F0000E94870981110BC0CE010E94E008CE0136
:10140000DF91CF911F910F91FF90EF9008951D8371
:101410000C83B701888199810E949F1FF0CFFB0147
:1014200001900020E9F73197AF01461B570B0C9450
:10143000EE090F931F93CF93DF93CDB7DEB762977B
:101440000FB6F894DEBF0FBECDBF8C01CB01F80103
:101450001182108213821282158214824AE0BE0128
:101460006F5F7F4F0E945718BE016F5F7F4FC801AB
:101470000E940F0A62960FB6F894DEBF0FBECDBF72
:10148000DF91CF911F910F910895EF92FF920F93EB
:101490001F93CF93DF93CDB7DEB7E3970FB6F894E2
:1014A000DEBF0FBECDBF7C01CB01BA01F7011182B7
:1014B000108213821282158214828E010F5F1F4FD9
:1014C00021E043E00E941218009789F0BC01C70197
:1014D0000E940F0AE3960FB6F894DEBF0FBECDBF91
:1014E000DF91CF911F910F91FF90EF900895C70169
:1014F0000E94E008EFCFFC01118210821382128259
:1015000015821482FB0101900020E9F73197AF01A9
:10151000461B570B0C94EE096F927F928F929F920D
:10152000AF92BF92CF92DF92EF92FF920F931F93F1
:10153000CF93DF9300D000D0CDB7DEB77C013B0165
:10154000DC011496CD90DC90B12CA12C10E000E0D1
:101550000C151D0578F4F701808091806AE370E036
:10156000C401800F911F0E948B1F8C01081919095B
:10157000892B11F40FEF1FEF0F5F1F4F09F455C0B8
:10158000FFEFAF1ABF0A6A147B0411F758010C155C
:101590001D0578F4D7018D909C906AE370E0C4013A
:1015A000800F911F0E948B1F009719F088199909CD
:1015B00097FDC6016C018017910710F45C0168016A
:1015C0006BE172E0CE0101960E947B0AF701048173
:1015D0001581A016B106F0F4C016D10608F48601F4
:1015E000D701ED91FC911197E00FF11FD08010828F
:1015F0006D917C916A0D7B1DCE010196611571057F
:1016000051F10E940F0AF70180819181080F191F83
:10161000D801DC9289819A81009701F10E943018EB
:101620008B01CE0101960E94F208C80126960FB6E2
:10163000F894DEBF0FBECDBFDF91CF911F910F9108
:10164000FF90EF90DF90CF90BF90AF909F908F90E2
:101650007F906F9008950E94E008D5CF60E070E021
:10166000CB01DECF2F923F924F925F926F927F928B
:101670008F929F92AF92BF92CF92DF92EF92FF92A2
:101680000F931F93CF93DF93CDB7DEB7E4970FB6D9
:10169000F894DEBF0FBECDBF7C016CE172E00E940A
:1016A0007209882339F01092CE0361E085E00E9430
:1016B000A203C4C066E272E0C7010E9472098823D7
:1016C00021F01092CE0360E0F1CF60E372E0CE0132
:1016D00001960E947B0ABE016F5F7F4FC7010E9487
:1016E0005709182FCE0101960E94F208112309F420
:1016F00041C063E070E0C7010E948C0A10E000E086
:1017000097FD11C063E070E0C7010E948C0A0FEFE3
:1017100010E08F3F910509F034F463E070E0C701F9
:101720000E948C0A8C01B80185E00E940C04B8016B
:10173000CE0101960E94190A6DE372E0CE018396F4
:101740000E947B0ABE016F5F7F4FCE0183960E948D
:10175000DB098C0166E472E0CE0189960E947B0A67
:10176000B801CE0189960E94B708CE0189960E94E1
:10177000F20801C662E572E0CE0101960E947B0A82
:10178000BE016F5F7F4FC7010E945709182FCE011E
:1017900001960E94F208112309F446C062E070E04D
:1017A000C7010E948C0A18161906DCF562E070E089
:1017B000C7010E948C0A12E3C397A4F562E070E0AF
:1017C000C7010E948C0A182F092F812F880F809340
:1017D000C90381E08093CE030E943A0560557109E8
:1017E000810991096093CA037093CB038093CC0362
:1017F0009093CD03612F702FCE0101960E94190A9C
:101800006DE572E0CE0183960E947B0ABE016F5F98
:101810007F4FCE0183960E94DB098C0167E672E060
:101820009BCF11E000E0D1CF61E772E0C7010E94D9
:101830007209882381F084E00E944C066BE172E01B
:10184000CE0101960E947B0ABE016F5F7F4FC701E8
:101850000E94B708ACC36DE772E0CE0101960E940A
:101860007B0ABE016F5F7F4FC7010E945709182F87
:10187000CE0101960E94F208112309F422C361E00F
:1018800070E0C7010E948C0A34E6232E312C843686
:10189000910594F061E070E0C7010E948C0A20E499
:1018A000222E2FE1322E81349F4134F461E070E02A
:1018B000C7010E948C0A1C0162E070E0C7010E940F
:1018C0008C0A449794F162E070E0C7010E948C0A90
:1018D000893893416CF562E070E0C7010E948C0A80
:1018E00098AB8FA78FA598A92C01990F6608770848
:1018F000809100028430F9F08F3F09F494C0B10167
:10190000CE0101960E94190A65E872E0CE01839625
:101910000E947B0ABE016F5F7F4FCE0183960E94BB
:10192000DB098C016BE872E017CF84E190E0D8CF3F
:1019300088E893E1D5CFEAEBF2E0149117FDDFCF11
:1019400061E084E00E94D003112319F0123009F005
:10195000E7C14101B12CA12C60E072E18AE790E07F
:10196000A50191010E944E1C29AB3AAB4BAB5CAB7D
:1019700069017A0191E0C91AD108E108F1082FEF55
:10198000C216D104E104F10409F00CF49BC160E437
:1019900072E48FE090E0A50191010E944E1C690164
:1019A0007A0181E0C81AD108E108F108123009F083
:1019B0000EC182E09FEFC916D104E104F10409F0E1
:1019C0000CF452C160E970ED83E090E0A501910153
:1019D0000E944E1C69017A0181E0C81AD108E10811
:1019E000F10883E09FEFC916D104E104F10409F086
:1019F0000CF43AC168E478EE81E090E0A501910131
:101A00000E944E1C69017A0191E0C91AD108E108CF
:101A1000F1082FEFC216D104E104F10411F00CF02B
:101A20002AC184E021C184E080930002EAEBF2E065
:101A30001491812F1F3F09F462CF123009F468C05E
:101A400060F4112379F1113009F444C087FD57CFB8
:101A500061E084E00E94D00379CF143009F499C08A
:101A600008F478C0153091F71092200110922101EE
:101A70008091210188608093210180912101816002
:101A800080932101ECE1F4E0E491F0E0EE0FFF1F20
:101A9000E256FC4F85919491E2E6F4E0E491E09304
:101AA000A0034ECF14BC15BC84B5826084BD85B53F
:101AB000816085BDECE1F4E0E491F0E0EE0FFF1F02
:101AC000E256FC4F85919491E2E6F4E0E491E093D4
:101AD000A40336CF10928000109281008091810083
:101AE0008860809381008091810081608093810073
:101AF000ECE1F4E0E491F0E0EE0FFF1FE256FC4F62
:101B000085919491E2E6F4E0E491E093A30318CF89
:101B10001092B0001092B1008091B000826080936A
:101B2000B0008091B10081608093B100ECE1F4E0FD
:101B3000E491F0E0EE0FFF1FE256FC4F8591949187
:101B40009093BE038093BD03E2E6F4E0E491E0935A
:101B5000BF03F6CE109290001092910080919100F8
:101B600088608093910080919100816080939100C2
:101B7000ECE1F4E0E491F0E0EE0FFF1FE256FC4FE1
:101B800085919491E2E6F4E0E491E093A20313E0FE
:101B9000D7CE1092A0001092A1008091A100886081
:101BA0008093A1008091A10081608093A100ECE16D
:101BB000F4E0E491F0E0EE0FFF1FE256FC4F859158
:101BC0009491E2E6F4E0E491E093A103B9CE2FEF23
:101BD000C216D104E104F10409F00CF49FC068E4DA
:101BE00078EE81E090E0A50191010E944E1C690110
:101BF0007A0181E0C81AD108E108F108112309F43B
:101C0000D0C42FEFC216D104E104F10409F00CF4A2
:101C100008CF62E17AE780E090E0A50194010E949C
:101C20004E1C69017A0181E0C81AD108E108F10867
:101C3000112309F4ADC486E09FEFC916D104E10475
:101C4000F10491F088F0C9A8DAA8EBA8FCA89AE002
:101C5000F594E794D794C7949A95D1F781E0C81A80
:101C6000D108E108F10887E09091B100987F892BB5
:101C70008093B1002EC064E274EF80E090E0A50193
:101C800094010E944E1C69017A0191E0C91AD108A1
:101C9000E108F10885E02FEFC216D104E104F10458
:101CA00019F310F362E17AE780E090E0A501940176
:101CB0000E944E1C69017A0191E0C91AD108E1081D
:101CC000F108B9CF81E01111CFCF95B5987F892B5D
:101CD00085BD2FEF3FEFA90145284628472809F089
:101CE00057C0123009F4DDC00CF0C5C0112309F44F
:101CF000C9C0113009F003CED0928900C09288008B
:101D00002093B1033093B2034093B3035093B403D1
:101D100080916F00826080936F00F1CD82E0D3CF1D
:101D2000B12CA12C60E072E18AE790E0A50191015D
:101D30000E944E1C69017A0191E0C91AD108E1089C
:101D4000F10891E0C114D10421E0E206F10484F02D
:101D500068E478EE81E090E0A50191010E944E1CBC
:101D600069017A0181E0C81AD108E108F10893E01D
:101D70001130E1F480918100887F892B809381006C
:101D80002FEF3FEFA90145284628472809F4B4CF93
:101D90009101220F331FAFA5B8A90E946D1D28EE37
:101DA00033E040E050E00E94801C9BCF1330F9F4F8
:101DB00080919100887F892B809391002FEF3FEFD6
:101DC000A90145284628472819F7D0929900C092C2
:101DD00098002093AD033093AE034093AF0350932C
:101DE000B0038091710082608093710088CD1430BF
:101DF000F9F48091A100887F892B8093A1002FEFB7
:101E00003FEFA90145284628472811F6D092A9009E
:101E1000C092A8002093A9033093AA034093AB0378
:101E20005093AC038091720082608093720067CD02
:101E3000153009F04ECF80912101887F892B809346
:101E400021012FEF3FEFA90145284628472809F037
:101E50009FCFD0922901C09228012093A5033093EF
:101E6000A6034093A7035093A80380917300826058
:101E70008093730044CD143049F20CF4A6CF153092
:101E800041F33DCDC7BC2093B5033093B6034093D7
:101E9000B7035093B80380916E00826080936E0008
:101EA0002ECDC092B3002093C0033093C103409362
:101EB000C2035093C30380917000826080937000CE
:101EC0001ECD62E972E0C7010E947209882329F0E1
:101ED0001092C80361E087E0EACB6EE972E0C701C7
:101EE0000E947209882321F01092C80360E0F3CFAA
:101EF0006AEA72E0CE0101960E947B0ABE016F5F22
:101F00007F4FC7010E945709182FCE0101960E94EA
:101F1000F208112309F44EC062E070E0C7010E948C
:101F20008C0A04E110E0449784F062E070E0C7019D
:101F30000E948C0A08E813E18938934134F462E086
:101F400070E0C7010E948C0A8C0161E087E00E946A
:101F5000A20381E08093C8030E943A05012E000C81
:101F6000220B330BDC01CB01800F911FA21FB31F8B
:101F70008093C4039093C503A093C603B093C70393
:101F80006BE172E0CE0101960E947B0A67EB72E082
:101F9000CE0183960E947B0ABE016F5F7F4FCE0108
:101FA00083960E94B708CE0183960E94F208CE0164
:101FB000019695C163EC72E0C7010E947209882303
:101FC00009F40FC10E944605882349F08091150548
:101FD0008B3028F08D3050F085518230C8F1412C83
:101FE000512C50EC652E5FE7752E1EC060911005D8
:101FF00070E090E080E00E942E1B2DEC3CEC4CEC5D
:102000005DE30E948D1B4B015C0160910F0570E048
:1020100090E080E00E942E1B9B01AC01C501B40141
:102020000E94B21C2B013C010E944605882309F442
:1020300074C0809115058C3009F47AC0D8F48B30C7
:1020400091F1812C912C30ECA32E3FE7B32E55C09B
:1020500060910F057091100576276727762790E02D
:1020600080E00E942C1B2DEC3CEC4CEC5DE30E94CC
:102070008D1BD8CF8551823020F710911105612F2B
:1020800070E0762F662766277F7780911205682B90
:1020900090E080E00E942C1B2DEC3CEC4CEC5DE3CE
:1020A0000E948D1B61C06091110570E090E080E09E
:1020B0000E942C1B4B015C011091120517FF0AC0F6
:1020C000AC019B0160E070E080E89FEB0E94B11CD6
:1020D0004B015C011F70612F70E090E080E00E9476
:1020E0002E1B2DEC3CEC4CEC5DE30E948D1BA501FE
:1020F00094010E94B21C4B015C01A3019201C30137
:10210000B2010E94541D811108C0A5019401C501AE
:10211000B4010E94541D882381F16CEC72E0CE0161
:1021200001960E947B0ACE0101960E940D153FCFB9
:1021300010911105612F70E090E080E00E942C1B4F
:102140004B015C01609112056F7070E090E080E0DF
:102150000E942E1B2DEC3CEC4CEC5DE30E948D1B91
:10216000A50194010E94B21C4B015C0117FFC5CF71
:10217000B7FAB094B7F8B094C0CFB301A201CE01C2
:1021800001960E94450AB501A401CE0183960E94E2
:10219000450A6CED72E0CE0189960E947B0ABE0171
:1021A0006D5D7F4FCE0189960E94DB098C014CE06A
:1021B00050E064EE72E00E94AF09811103C0C801D3
:1021C0000E94E008BE016F5F7F4FC8010E94DB09DB
:1021D000BC01C7010E94B708CE0189960E94F2088F
:1021E000E2CE61EF72E0C7010E947209882309F410
:1021F00091C060E08AE00E94A20383E090E0019732
:10220000F1F761E08AE00E94A20383E290E0019787
:10221000F1F760E08AE00E94A203E9E6F4E064914D
:10222000E3E2F4E0E491F0E0EE0FFF1FE250FC4F38
:102230008591949100E315E720E030E0462F0E945D
:102240009D146115710581059105E1F06F5F7F4F68
:102250008F4F9F4F9F70611571058105910591F01A
:102260000E942C1B28E23EE74CE05DE30E948D1BA0
:1022700020E030E040E05FE30E948D1B0E941E1DC5
:1022800097FF03C06EEF72E04ACF1CA21BA21EA2F2
:102290001DA218A61FA22AE0AE014F5F5F4F0E9449
:1022A0006218BE016F5F7F4FCE0183960E940F0AB6
:1022B00061E173E0CE0101960E947B0ABE016D5D73
:1022C0007F4FCE0101960E94DB09BC01C7010E942D
:1022D000B708CE0101960E94F208CE0183960E94B3
:1022E000F208E4960FB6F894DEBF0FBECDBFDF91C3
:1022F000CF911F910F91FF90EF90DF90CF90BF9003
:10230000AF909F908F907F906F905F904F903F9095
:102310002F9008956DE173E0C7010E947209882330
:1023200079F180917B00877F80937B0080E48093AC
:102330007C0080917A00806480937A0080917A009A
:1023400086FDFCCF6091780070917900CE010196F6
:102350000E94190A65E273E0CE0183960E947B0A0F
:10236000BE016F5F7F4FCE0183960E94DB09BC01E7
:10237000C7010E94B708CE0183960E94F20817CECB
:102380006CE273E0CE0101960E947B0ABE016F5F92
:102390007F4FC7010E945709182FCE0101960E9456
:1023A000F208112391F161E070E0C7010E948C0AEC
:1023B00010E000E097FD10C061E070E0C7010E94EE
:1023C0008C0A04EB10E0853B910534F461E070E089
:1023D000C7010E948C0A8C01C8010E94BF02B8018B
:1023E000CE0101960E94190A63E373E0CE01839641
:1023F0000E947B0ABE016F5F7F4FCE0183960E94D1
:10240000DB098C016CE373E0A7C962E473E0CE01E1
:1024100001960E947B0ABE016F5F7F4FC7010E9439
:102420005709182FCE0101960E94F208112399F145
:1024300062E070E0C7010E948C0A10E000E097FDA6
:1024400010C062E070E0C7010E948C0A04E610E050
:102450008536910534F462E070E0C7010E948C0A71
:102460008C01B80181E00E94E214B801CE0101960E
:102470000E94190A6DE473E0CE0183960E947B0AE4
:10248000BE016F5F7F4FCE0183960E94DB098C01F6
:1024900066E573E061C960E673E0CE0101960E94D3
:1024A0007B0ABE016F5F7F4FC7010E945709182F3B
:1024B000CE0101960E94F208112399F162E070E0CA
:1024C000C7010E948C0A10E000E097FD10C062E096
:1024D00070E0C7010E948C0A04E610E08536910581
:1024E00034F462E070E0C7010E948C0A8C01B801EC
:1024F00080E00E94E214B801CE0101960E94190A00
:102500006DE473E0CE0183960E947B0ABE016F5F8B
:102510007F4FCE0183960E94DB098C016BE673E04E
:102520001BC965E773E0C7010E947209882361F047
:1025300070E060E086E00E940C0460E08CE00E94A5
:10254000A20360E08DE0B3C860E873E0CE010196BD
:102550000E947B0AB701CE0101960E94DB090E940E
:102560000D15CE0101960E94F208BBCEC9A8DAA8CB
:10257000EBA8FCA88AE0F594E794D794C7948A95D1
:10258000D1F721E0C21AD108E108F10885E09DCB1E
:102590008FEFC816D104E104F10409F038F784E0A4
:1025A00094CB8FEFC816D104E104F10411F00CF0C4
:1025B00030CB83E08ACB1F920F920FB60F9211247B
:1025C0002F933F938F939F93AF93BF938091D003AB
:1025D0009091D103A091D203B091D3033091CF0356
:1025E00023E0230F2D3758F50196A11DB11D20932F
:1025F000CF038093D0039093D103A093D203B093E1
:10260000D3038091D4039091D503A091D603B091C8
:10261000D7030196A11DB11D8093D4039093D503D8
:10262000A093D603B093D703BF91AF919F918F91A1
:102630003F912F910F900FBE0F901F90189526E895
:10264000230F0296A11DB11DD2CF1F920F920FB67C
:102650000F9211240BB60F922F933F934F935F93DA
:102660006F937F938F939F93AF93BF93EF93FF935A
:102670008091C0039091C103A091C203B091C303A4
:10268000892B8A2B8B2BE1F19091BF03E091BD0345
:10269000F091BE038081892780838091C00390914F
:1026A000C103A091C203B091C303181619061A06FC
:1026B0001B069CF48091C0039091C103A091C203BA
:1026C000B091C3030197A109B1098093C00390930E
:1026D000C103A093C203B093C303FF91EF91BF91D5
:1026E000AF919F918F917F916F915F914F913F91AA
:1026F0002F910F900BBE0F900FBE0F901F9018954B
:10270000809100020E944C06E8CF1F920F920FB6F4
:102710000F9211240BB60F922F933F934F935F9319
:102720006F937F938F939F93AF93BF93EF93FF9399
:1027300088ED93E00E941607FF91EF91BF91AF9152
:102740009F918F917F916F915F914F913F912F91C9
:102750000F900BBE0F900FBE0F901F9018951F92F9
:102760000F920FB60F9211240BB60F922F938F93E7
:102770009F93EF93FF93E091E803F091E903808149
:10278000E091EE03F091EF0382FD1DC090818091F6
:10279000F1038F5F8F732091F203821741F0E09174
:1027A000F103F0E0E852FC4F958F8093F103FF9125
:1027B000EF919F918F912F910F900BBE0F900FBEB5
:1027C0000F901F9018958081F2CF1F920F920FB635
:1027D0000F9211240BB60F922F933F934F935F9359
:1027E0006F937F938F939F93AF93BF93EF93FF93D9
:1027F00048E251E064E271E090E080E00E94FD0771
:10280000FF91EF91BF91AF919F918F917F916F91C8
:102810005F914F913F912F910F900BBE0F900FBE84
:102820000F901F9018951F920F920FB60F921124C0
:102830000BB60F922F933F934F935F936F937F93BA
:102840008F939F93AF93BF93EF93FF9348EA50E02A
:1028500064EA70E083E090E00E94FD07FF91EF9151
:10286000BF91AF919F918F917F916F915F914F91A8
:102870003F912F910F900BBE0F900FBE0F901F90A6
:1028800018951F920F920FB60F9211240BB60F924C
:102890002F933F934F935F936F937F938F939F9368
:1028A000AF93BF93EF93FF9348E950E064E970E082
:1028B00082E090E00E94FD07FF91EF91BF91AF9100
:1028C0009F918F917F916F915F914F913F912F9148
:1028D0000F900BBE0F900FBE0F901F9018951F9278
:1028E0000F920FB60F9211240BB60F922F933F93B6
:1028F0004F935F936F937F938F939F93AF93BF9308
:10290000EF93FF9348E850E064E870E081E090E0E6
:102910000E94FD07FF91EF91BF91AF919F918F9121
:102920007F916F915F914F913F912F910F900BBECF
:102930000F900FBE0F901F901895CF92DF92EF92DD
:10294000FF920F931F93E82FF92F05C00150110933
:102950002109310961F1908196239417B9F305C0DB
:10296000015011092109310911F190819623941325
:10297000F7CFC12CD12CE12CF12C0AC08FEFC81A53
:10298000D80AE80AF80A0C151D052E053F0579F04E
:1029900080818623841791F36C2D7D2D8E2D9F2DA4
:1029A0001F910F91FF90EF90DF90CF90089560E01E
:1029B00070E080E090E01F910F91FF90EF90DF902A
:1029C000CF9008951F93CF93DF93C82F162FD72F43
:1029D000682F8CE00E94A20361E06C278DE00E94CA
:1029E000A203A12FBD2FA536B10514F0A4E6B0E0D7
:1029F000B7FF02C0B0E0A0E02FEF30E00E946D1DF5
:102A000024E630E040E050E00E944E1CB90186E030
:102A1000DF91CF911F910C940C04CF93DF93EC01C5
:102A200084EA92E00E948507CE010E94C60681EAF0
:102A300092E0DF91CF910C94A0071092DB031092EB
:102A4000DA0388EE93E0A0E0B0E08093DC0390939B
:102A5000DD03A093DE03B093DF038BE092E090935D
:102A6000D9038093D80385EC90E09093E50380939D
:102A7000E40384EC90E09093E7038093E60380EC1A
:102A800090E09093E9038093E80381EC90E09093C9
:102A9000EB038093EA0382EC90E09093ED03809344
:102AA000EC0386EC90E09093EF038093EE0310929A
:102AB000F1031092F2031092F3031092F40382E0F8
:102AC0008093140586E180931505E0E6F4E0E49137
:102AD000E0931605EAE1F4E0E491E093170580E85D
:102AE0009EE3A0E0B0E080931C0590931D05A093A9
:102AF0001E05B0931F05809105058033C0F491E059
:102B0000980F9093050580930C0590E0FC01EE0F63
:102B1000FF1FE80FF91FEB58FB4F88EB9BE09283F8
:102B200081836BE172E086E095E00C947B0A8FEF85
:102B300080930C05F6CFCF93DF9300D000D0CDB7B4
:102B4000DEB7789484B5826084BD84B5816084BD2D
:102B500085B5826085BD85B5816085BD80916E003B
:102B6000816080936E00109281008091810082606C
:102B700080938100809181008160809381008091A9
:102B800080008160809380008091B1008460809398
:102B9000B1008091B00081608093B000809191007D
:102BA0008260809391008091910081608093910078
:102BB000809190008160809390008091A10082605C
:102BC0008093A1008091A10081608093A1008091F9
:102BD000A00081608093A000809121018260809399
:102BE0002101809121018160809321018091200148
:102BF00081608093200180917A00846080937A00C4
:102C000080917A00826080937A0080917A0081605E
:102C100080937A0080917A00806880937A00109285
:102C2000C100E091E803F091E90382E08083E09144
:102C3000E403F091E5031082E091E603F091E703ED
:102C400080E180831092F003E091EC03F091ED03BA
:102C500086E08083E091EA03F091EB03808180615C
:102C60008083E091EA03F091EB03808188608083A8
:102C7000E091EA03F091EB03808180688083E0912A
:102C8000EA03F091EB0380818F7D808360E670E042
:102C900086E095E00E94870961E085E00E94D0030C
:102CA00061E084E00E94D00361E087E00E94D003ED
:102CB00061E08AE00E94D00360E08BE00E94D003D4
:102CC00061E08CE00E94D00361E08DE00E94D003BF
:102CD00061E086E00E94D00380910C05803308F00B
:102CE00052C061E089E00E94D00380910C05282F3A
:102CF00030E0F901EE0FFF1FE20FF31FEB58FB4F1F
:102D00009081907C9960908310920D0510920E0531
:102D10002CE0622F0E94591D829FB001112430E0E7
:102D200020E0AB01420F531FFA01EE0FFF1FE40F2B
:102D3000F51FEB58FB4F908196FD17C02F5F3F4F5B
:102D40002C30310571F7813009F0FBC01092800002
:102D500082E0809381001092850010928400B19AE5
:102D600080916F00826080936F00E0910C058E2F40
:102D700090E0FC01EE0FFF1FE80FF91FEB58FB4F2F
:102D80008081806480838AE590E00E94BF0262E0D7
:102D9000809114050E94D0030E943A05605D77403F
:102DA00081099109609318057093190580931A059C
:102DB00090931B0587E38093210564EF71E080E029
:102DC00090E00E9408058BEB92E00E94A0070DEBBB
:102DD00013E093E6E92E94E0F92E2DE1C22E24E0D3
:102DE000D22E0E943A054B015C018091CE038823CC
:102DF00009F44DC08091CA039091CB03A091CC03FC
:102E0000B091CD03A5019401281B390B4A0B5B0B34
:102E1000DA01C90180359105A105B10508F437C073
:102E20008092CA039092CB03A092CC03B092CD03C0
:102E3000F8018491F7017490F601649070E060E00D
:102E4000662099F081110E943B03E62DF0E0EE0F21
:102E5000FF1FE250FC4FA591B4918C91782291E034
:102E600080E009F490E0692F782FF1E06F2785E08A
:102E70000E94A2038091C90381508093C9038111EC
:102E800006C01092CE0360E085E00E94A20380910C
:102E9000C8038823A1F08091C4039091C503A09139
:102EA000C603B091C703881A990AAA0ABB0AB7FCDD
:102EB00006C01092C80360E087E00E94A20388ED7C
:102EC00093E00E940007892B09F4A5C088ED93E0E8
:102ED0000E94DE068A3009F087C086E095E00E94F5
:102EE000FA0840910A0550910B054115510509F466
:102EF00064C01A8219821C821B821E821D8260910C
:102F00000605709107056115710521F0CE01019646
:102F10000E94EE09CE0101960E94FA08A980BA80AB
:102F2000A114B104D1F1F50181915F018823A9F1C8
:102F3000082E000C990B0E947A1FF50131978083AF
:102F4000F2CF823061F41092900080939100109241
:102F500095001092940088BB8093710006CF833057
:102F600069F41092A00082E08093A1001092A50065
:102F70001092A40089BB80937200F7CE8111F5CE28
:102F80001092200182E0809321011092250110927D
:102F900024018ABB80937300E8CE62E973E0CE011E
:102FA00001960E947209882379F088E593E00E94D7
:102FB000A007CE0101960E94F2086BE172E086E064
:102FC00095E00E940F0A7BCF67E973E0CE0101967E
:102FD0000E947209882319F088EF92E0E8CFCE01B1
:102FE00001960E94320BE5CF8D3009F468CF209115
:102FF0000A0530910B052F35310508F060CF898324
:103000001A8241E050E0BE016F5F7F4F86E095E09D
:103010000E94AF0954CF0E94CC07E3CE86E095E032
:103020000C94F208EF920F931F93CF93DF93E80174
:1030300034E047FD34E1042E000C550B57FF03C06C
:10304000519541955109E32E022F242FAE010E9484
:10305000C218CE01DF91CF911F910F91EF9008958B
:103060001F93FC0199278827BC01E8941191103225
:10307000E9F3193010F01E30C8F31B3251F01D3245
:1030800049F4689406C00E947118610F711D811D7A
:10309000911D119110531A30B0F33EF49095809524
:1030A000709561957F4F8F4F9F4F1F910895BB275C
:1030B0004A3031F4992322F4BDE2909581959F4FD7
:1030C0000C94A918BB272A3051F4992342F4BDE28D
:1030D00090958095709561957F4F8F4F9F4F0C9481
:1030E0008718592F482F372F262F660F771F881FD5
:1030F000991F660F771F881F991F620F731F841F08
:10310000951F660F771F881F991F0895BB27FA0127
:10311000A62F6217710581059105330B30FB66F010
:10312000AA27660F771F881F991FAA1FA21710F0E2
:10313000A21B63953850A9F7A05DAA3308F0A95DDA
:10314000A19336F7B111B1931082CA010C941C1BE4
:10315000BB27FB015527AA27880F991FAA1FA41771
:1031600010F0A41B83955051B9F7A05DAA3308F065
:10317000A95DA193009779F7B111B1931192CB0199
:103180000C941C1B8F929F92AF92BF92CF92DF92B2
:10319000EF92FF920F931F93CF93DF9300D000D055
:1031A00000D0CDB7DEB76A01F22EB02E102FFBE3B0
:1031B000AF2EA01608F41BE31F5F012F27E0AE011E
:1031C0004F5F5F4F0E943B1ABC018981982F997015
:1031D000913009F44EC09BE2E1FC04C09E2D917039
:1031E000E0FC49C05E2D5071E82FE87083FF55C0A8
:1031F00084E0911101C083E0EF2DE81B8F1508F0EA
:10320000E0E0D6018E2F20E25523C9F1992329F061
:10321000D6019C93C60101966C0196012D5F3F4F2C
:10322000E2FE33C08EE4D6018C9391E411969C9318
:10323000119712968C93D9018E2F90E281112AC09A
:10324000E20FF32FF11D10828EEF9FEF29960FB63C
:10325000F894DEBF0FBECDBFDF91CF911F910F91CC
:10326000FF90EF90DF90CF90BF90AF909F908F90A6
:1032700008959DE2B7CF90E2B5CF2D938150811193
:10328000FCCFCE0ED11CE0E0C1CF8EE6D6018C93F0
:1032900091E6CCCF9D938150D1CF482F447082FFCF
:1032A0003DC084E0911101C083E08F1510F4EF2D33
:1032B000E81BD6018E2F20E2552309F1992329F02E
:1032C000D6019C93C60101966C0196012D5F3F4F7C
:1032D000E2FE1BC089E4D6018C938EE411968C9398
:1032E000119786E412968C93D9018E2F90E2882351
:1032F00009F4A6CF9D938150FACF2D93815081116F
:10330000FCCFCE0ED11CE0E0D9CF89E6D6018C935C
:103310008EE611968C93119786E6E4CF9B0177FF9A
:1033200002C030E020E0A1E0B0E0911102C0B0E0C6
:10333000A0E0F9013196AE0FBF1F8B2C912CBB2062
:1033400009F461C05401EFEFAE1ABE0AAA0DBB1D0D
:10335000FA161B0619F014F04F2D4A1B511188C0A4
:10336000E3FC59C07601A42FB0E2A1114FC0C40EF6
:10337000D11C992309F45BC040E0D6011196F601F7
:1033800090836D01552309F448C0012F060F9A81DF
:10339000582F507184FF03C0913309F40150101667
:1033A0000CF047C0093008F008E0EEE2FE2E5B01A9
:1033B000A01AB10885019194819491082F3F32079A
:1033C00029F4D601FC92F60131966F01621773075A
:1033D00094F1021713077CF5DB01A21BB30BAA249F
:1033E000A394B12CAC0EBD1EAA0DBB1D11968C91E1
:1033F00021503109D601119628153905F4F0F6014E
:1034000080836D01DBCFB12CA12CA0CFF701B1934C
:103410007F01A150AACF9111B0CFD601942F50E3D4
:1034200002C05D9391509111FCCFC40ED11C40E0BD
:10343000ACCF01E0BACF80E3DBCF6217730731F482
:10344000963388F4953311F4552369F0F60180839F
:10345000FD01842F90E2811108C0A40FB11D1C92C0
:1034600090E080E0F3CE81E3F1CF91938150F3CFF0
:10347000911183CF8ACF283008F027E03327DA0173
:10348000990F311D87FD916000966105710539F432
:1034900032602E5F3D9330E32A95E1F708959F3F18
:1034A00030F080387105610509F03C5F3C5F3D9369
:1034B000913008F08068911DDF93CF931F930F9395
:1034C000FF92EF92192F987F9695E92F96959695F2
:1034D000E90FFF27E651FE4F99273327EE24FF24FB
:1034E000A701E70105900894079428F4360FE71E1A
:1034F000F81E491F511D660F771F881F991F0694DC
:10350000A1F70590079428F4E70EF81E491F561FEF
:10351000C11D770F881F991F661F0694A1F705909C
:10352000079428F4F80E491F561FC71FD11D880F96
:10353000991F661F771F0694A1F70590079420F442
:10354000490F561FC71FD81F990F661F771F881F67
:103550000694A9F784911095177041F0D695C795F8
:1035600057954795F794E7941A95C1F7E0E9F1E08C
:1035700068941590159135916591959105907FE22C
:103580007395E118F10A430B560BC90BD009C0F72C
:10359000E10CF11E431F561FC91FD01D7EF470336E
:1035A00011F48A95E6CFE894015030F0080F0AF440
:1035B0000027021708F4202F2395022F7A3328F0D2
:1035C00079E37D932A95E9F710C07D932A9589F6D2
:1035D000069497956795379517951794E118F10A12
:1035E000430B560BC90BD00998F023957E91739528
:1035F0007A3308F070E37C932013B8F77E91706102
:103600007D9330F0839571E37D9370E32A95E1F724
:103610001124EF90FF900F911F91CF91DF91992787
:1036200087FD9095089591110C94FA1B803219F042
:1036300089508550C8F70895DC01FC01672F71910E
:103640007723E1F7329704C07C916D937083629188
:10365000AE17BF07C8F30895E89409C097FB3EF47E
:1036600090958095709561957F4F8F4F9F4F9923CF
:10367000A9F0F92F96E9BB279395F695879577954D
:103680006795B795F111F8CFFAF4BB0F11F460FF0D
:103690001BC06F5F7F4F8F4F9F4F16C0882311F065
:1036A00096E911C0772321F09EE8872F762F05C079
:1036B000662371F096E8862F70E060E02AF09A9514
:1036C000660F771F881FDAF7880F9695879597F909
:1036D0000895990F0008550FAA0BE0E8FEEF1616A3
:1036E0001706E807F907C0F012161306E407F507F6
:1036F00098F0621B730B840B950B39F40A2661F06A
:10370000232B242B252B21F408950A2609F4A1400C
:10371000A6958FEF811D811D08950E94A01B0C941A
:10372000141C0E94061C38F00E940D1C20F09523EA
:1037300011F00C94FD1B0C94031C11240C94481CD8
:103740000E94251C70F3959FC1F3950F50E0551F03
:10375000629FF001729FBB27F00DB11D639FAA27E6
:10376000F00DB11DAA1F649F6627B00DA11D661F35
:10377000829F2227B00DA11D621F739FB00DA11D56
:10378000621F839FA00D611D221F749F3327A00D10
:10379000611D231F849F600D211D822F762F6A2FAC
:1037A00011249F5750409AF0F1F088234AF0EE0F11
:1037B000FF1FBB1F661F771F881F91505040A9F73E
:1037C0009E3F510580F00C94FD1B0C94481C5F3FFC
:1037D000E4F3983ED4F3869577956795B795F7957A
:1037E000E7959F5FC1F7FE2B880F911D96958795F2
:1037F00097F9089599278827089597F99F6780E892
:1038000070E060E008959FEF80EC089500240A9432
:103810001616170618060906089500240A941216AB
:103820001306140605060895092E0394000C11F4DE
:10383000882352F0BB0F40F4BF2B11F460FF04C08B
:103840006F5F7F4F8F4F9F4F089557FD9058440FE4
:10385000551F59F05F3F71F04795880F97FB991FEF
:1038600061F09F3F79F087950895121613061406AC
:10387000551FF2CF4695F1DF08C016161706180639
:10388000991FF1CF86957105610508940895E89414
:10389000BB2766277727CB0197F90895052E97FB5D
:1038A0001EF400940E94651C57FD07D00E94801CE6
:1038B00007FC03D04EF40C94651C50954095309550
:1038C00021953F4F4F4F5F4F08959095809570958C
:1038D00061957F4F8F4F9F4F08950E94A21CA59F17
:1038E000900DB49F900DA49F800D911D11240895FB
:1038F000B7FF0C946D1C0E946D1C821B930B0895E6
:10390000A1E21A2EAA1BBB1BFD010DC0AA1FBB1FE3
:10391000EE1FFF1FA217B307E407F50720F0A21B55
:10392000B30BE40BF50B661F771F881F991F1A94C2
:1039300069F760957095809590959B01AC01BD01EC
:10394000CF010895A29FB001B39FC001A39F700D46
:10395000811D1124911DB29F700D811D1124911D97
:1039600008955058BB27AA270E94C91C0C94141C08
:103970000E94061C38F00E940D1C20F039F49F3F75
:1039800019F426F40C94031C0EF4E095E7FB0C9458
:10399000FD1BE92F0E94251C58F3BA176207730715
:1039A0008407950720F079F4A6F50C94471C0EF4D3
:1039B000E0950B2EBA2FA02D0B01B90190010C013F
:1039C000CA01A0011124FF27591B99F0593F50F457
:1039D000503E68F11A16F040A22F232F342F4427AF
:1039E000585FF3CF469537952795A795F0405395A7
:1039F000C9F77EF41F16BA0B620B730B840BBAF077
:103A00009150A1F0FF0FBB1F661F771F881FC2F7E1
:103A10000EC0BA0F621F731F841F48F487957795F5
:103A20006795B795F7959E3F08F0B0CF9395880FAF
:103A300008F09927EE0F9795879508950E94251D08
:103A40006894B1110C94481C08950E942D1C88F0B4
:103A50009F5798F0B92F9927B751B0F0E1F0660F52
:103A6000771F881F991F1AF0BA95C9F714C0B13093
:103A700091F00E94471CB1E008950C94471C672FF9
:103A8000782F8827B85F39F0B93FCCF386957795C2
:103A90006795B395D9F73EF49095809570956195AB
:103AA0007F4F8F4F9F4F08950E94691B880B990B82
:103AB0000895991B79E004C0991F961708F0961B8A
:103AC000881F7A95C9F780950895EE0FFF1F881F0C
:103AD0008BBF0790F691E02D19940E94A21CB7FFAE
:103AE0000895821B930B08950F931F93CF93DF9339
:103AF0008230910510F482E090E0E0912405F0918D
:103B0000250530E020E0B0E0A0E0309799F42115E1
:103B1000310509F44AC0281B390B24303105D8F58A
:103B20008A819B816115710589F1FB0193838283F1
:103B3000FE0111C04081518102811381481759074C
:103B4000E0F04817590799F4109761F012960C931A
:103B5000129713961C933296CF01DF91CF911F914C
:103B60000F9108950093240510932505F4CF211596
:103B7000310551F04217530738F0A901DB019A01D2
:103B8000BD01DF01F801C1CFEF01F9CF9093250509
:103B900080932405CDCFFE01E20FF31F8193919313
:103BA0002250310939832883D7CF209122053091C3
:103BB0002305232B41F4209103023091040230931A
:103BC0002305209322052091010230910202211544
:103BD000310541F42DB73EB74091050250910602E0
:103BE000241B350BE0912205F0912305E217F30722
:103BF000A0F42E1B3F0B2817390778F0AC014E5F5D
:103C00005F4F2417350748F04E0F5F1F5093230571
:103C100040932205819391939FCFF0E0E0E09CCF09
:103C2000CF93DF930097E9F0FC0132971382128261
:103C3000A0912405B0912505ED0130E020E010971A
:103C4000A1F420813181820F931F209122053091B0
:103C500023052817390709F061C0F0932305E09385
:103C60002205DF91CF910895EA01CE17DF07E8F52D
:103C70004A815B819E0141155105B1F7E901FB8342
:103C8000EA8349915991C40FD51FEC17FD0761F4E0
:103C9000808191810296840F951FE9019983888321
:103CA000828193819B838A83F0E0E0E012968D917C
:103CB0009C9113970097B9F52D913C911197CD01E7
:103CC0000296820F931F2091220530912305281719
:103CD000390739F6309751F51092250510922405D1
:103CE000B0932305A0932205BCCFD383C283408128
:103CF0005181840F951FC817D90761F44E5F5F4F3C
:103D000088819981480F591F518340838A819B8103
:103D1000938382832115310509F0B0CFF0932505F7
:103D2000E09324059ECFFD01DC01C0CF13821282F7
:103D3000D7CF4F925F926F927F928F929F92AF9266
:103D4000BF92CF92DF92EF92FF920F931F93CF9388
:103D5000DF938C01009799F4CB01DF91CF911F91F4
:103D60000F91FF90EF90DF90CF90BF90AF909F901A
:103D70008F907F906F905F904F900C94741DFC011A
:103D8000E60FF71F9C0122503109E217F30708F4F0
:103D9000AEC0D901CD91DC911197C617D70720F19C
:103DA000C530D10578F0CE0104978617970750F0FB
:103DB000C61BD70B2297C193D1936D937C93CF01F0
:103DC0000E94101EC801DF91CF911F910F91FF90AB
:103DD000EF90DF90CF90BF90AF909F908F907F90AB
:103DE0006F905F904F9008955B01AC1ABD0A4C0133
:103DF0008C0E9D1EA0912405B0912505512C412CBF
:103E0000F12CE12C109731F580912205909123053A
:103E10008815990509F05CC04616570608F058C089
:103E20008091010290910202009741F48DB79EB7F4
:103E30004091050250910602841B950BE817F90783
:103E400008F055C0F0932305E0932205F901718332
:103E50006083B8CF8D919C91119712966C901297B8
:103E600013967C901397A815B90559F56C0142E09B
:103E7000C40ED11CCA14DB0420F1AC014A195B0941
:103E8000DA011296159780F0628273825183408323
:103E9000D9016D937C93E114F10471F0D70113966D
:103EA000FC93EE9312978ECF22968C0F9D1FF901F3
:103EB00091838083F301EFCFF0932505E0932405F0
:103EC00081CF4816590608F42C017D01D3019ACF01
:103ED000CB010E94741D7C01009749F0AE01B8012E
:103EE0000E94821FC8010E94101E87016BCF10E044
:103EF00000E068CF9111089581568A5108F48052EC
:103F000085580895FB01DC0102C001900D924150DB
:103F10005040D8F70895FC018191861721F088233D
:103F2000D9F7992708953197CF010895FB01DC0156
:103F30008D91019080190110D9F3990B0895FB011F
:103F4000DC0101900D920020E1F70895FB01DC01F6
:103F50004150504030F08D910190801919F40020AB
:103F6000B9F7881B990B089512E0C3E5D2E000E091
:103F700006C0802FFE010E94651D2196011DC435DB
:0C3F8000D10780E00807A9F7F894FFCFF4
:103F8C00FF0000260580000000000038079106CFD6
:103F9C0006AC070007DE06F2060D0A005345543A3C
:103FAC004C45443A31005345543A4C45443A300060
:103FBC005345543A4C45443A50574D3A0022766199
:103FCC006C7565223A005345543A4C45443A505767
:103FDC004D00424C494E4B3A4C45443A00226379D1
:103FEC00636C6573223A00424C494E4B3A4C454443
:103FFC000042555A5A45523A53544F500042555A62
:10400C005A45523A0022687A223A0042555A5A4589
:10401C0052005345543A52454C41593A310053459C
:10402C00543A52454C41593A300050554C53453A4C
:10403C0052454C41593A0050554C53453A52454C17
:10404C004159004745543A54454D5000444854207A
:10405C0072656164206661696C6564002274656DCB
:10406C0070223A002C2268756D6964697479223A61
:10407C00004745543A44495354414E434500556C0E
:10408C00747261736F6E69632074696D656F75749A
:10409C00002264697374616E6365223A004745546B
:1040AC003A4C445200226C6472223A0053455256E8
:1040BC004F3A0022616E676C65223A0053455256A6
:1040CC004F004D4F544F523A4657443A00227370AA
:1040DC00656564223A004D4F544F523A465744009E
:1040EC004D4F544F523A5245563A004D4F544F5241
:1040FC003A524556004D4F544F523A53544F50007C
:10410C00556E6B6E6F776E20636F6D6D616E643A7A
:10411C00200050494E47004745543A494E464F00FF
:00000001FF
