:100000000C945D010C9485010C9485010C94850180
:100010000C9485010C9485010C9485010C94A50F1A
:100020000C9485010C9485010C9485010C94591055
:100030000C9485010C9485010C9485010C94850128
:100040000C945B0F0C9485010C9427100C940110F8
:100050000C9485010C9485010C9485010C94850108
:100060000C9485010C94850100407A10F35A00A08D
:10007000724E18090010A5D4E80000E87648170071
:1000800000E40B54020000CA9A3B000000E1F505B1
:10009000000080969800000040420F000000A086FB
:1000A00001000000102700000000E803000000002D
:1000B0006400000000000A000000000001000000D1
:1000C00000002C76D888DC674F0823DFC1DFAE59EB
:1000D000E1B1B796E5E3E453C63AE651997696E87E
:1000E000E6C28426EB898C9B62ED407C6FFCEFBC02
:1000F0009C9F40F2BAA56FA5F490055A2AF75C932D
:100100006B6CF9676DC11BFCE0E40D47FEF520E662
:10011000B500D0ED902E0300943577050080841E45
:10012000080000204E0A000000C80C333333330FA0
:10013000986E12831141EF8D2114893BE65516CF3D
:10014000FEE6DB18D1844B381BF77C1D901DA4BB49
:10015000E424203284725E228100C9F124ECA1E5FE
:100160003D277B226F6B223A747275652C22636F78
:100170006D6D616E64223A2200227D007B226F6BDE
:10018000223A66616C73652C226572726F72223A34
:100190002200027B226F6B223A747275652C2265F5
:1001A00076656E74223A227265616479222C22642B
:1001B0006576696365223A2261726475696E6F22A1
:1001C0002C2262617564223A3131353230307D0043
:1001D0007B226F6B223A747275652C22636F6D6D92
:1001E000616E64223A224745543A494E464F222CCA
:1001F00022646576696365223A2261726475696E6C
:100200006F222C226669726D77617265223A2248EC
:10021000572D574F524B42454E4348222C2276656C
:100220007273696F6E223A22312E302E30227D0099
:100230007B226F6B223A747275652C22636F6D6D31
:10024000616E64223A2250494E47222C226576651F
:100250006E74223A22706F6E67227D0000000000EB
:10026000240027002A0000000000250028002B00A1
:100270000000000800020100000304070000000065
:1002800000000000000000002300260029000404F4
:10029000040404040404020202020202030303032E
:1002A000030301020408102040800102040810200A
:1002B0000102040810209511391411241FBECFEF3C
:1002C000D8E0DEBFCDBF12E0A0E0B1E0E6ECF7E39E
:1002D00002C005900D92A03AB107D9F723E0A0EA39
:1002E000B2E001C01D92A83AB207E1F711E0CCE5F7
:1002F000D1E004C02197FE010E94B419CB35D1078B
:10030000C9F70E9413120C94D61B0C940000CF92D4
:10031000DF92EF92FF92CF93DF93B0919803A0E02A
:100320008111AB2F8091990390E0880F991FAC0148
:100330004C575D4FC0909E03D0909F03E090A00368
:10034000F090A10330E020E0FA01C591D491E8815A
:10035000B90190E080E0EB23EA130AC02F5F3F4F22
:100360006C157D058E059F0578F36FEF7FEFCB0150
:10037000DF91CF91FF90EF90DF90CF900895CF92D3
:10038000DF92EF92FF92DC01A03282E0B807D4F551
:10039000A53BB10514F0A4EBB0E040918F0328E831
:1003A00030E0241B310947FD3395220F331F220F04
:1003B000331F6901330FEE08FF084091900328E5D1
:1003C00032E0241B310947FD3395220F331F220FE2
:1003D000331F032E000C440B550B2C193D094E09FD
:1003E0005F09B7FF02C0B0E0A0E00E94891824EBCB
:1003F00030E040E050E00E945F18C20ED31EE41EC1
:10040000F51ED601E0918E03EC3080F520918F032C
:1004100088E890E0821B910927FD9395880F991F2A
:10042000880F991FA817B90784F02091900388E5D9
:1004300092E0821B910927FD9395880F991F880FE1
:10044000991FA817B9070CF4CD010297880F991FBF
:100450004FB7F8942E2F30E0F901EE0FFF1FE20F97
:10046000F31FED59FC4F928381834FBFFF90EF90B4
:10047000DF90CF900895833081F028F4813099F097
:100480008230A9F008958730A9F08830C9F084300F
:10049000B1F4809180008F7D03C0809180008F77C0
:1004A00080938000089584B58F7784BD089584B5C6
:1004B0008F7DFBCF8091B0008F778093B00008953F
:1004C0008091B0008F7DF9CF1F93CF93DF93282FBA
:1004D00030E0F901E059FD4F8491F901EE55FD4FEF
:1004E000D491F901E257FD4FC491CC23A9F0162F06
:1004F00081110E943B02EC2FF0E0EE0FFF1FEA5942
:10050000FD4FA591B4918FB7F894EC91111108C0EB
:10051000D095DE23DC938FBFDF91CF911F9108959B
:10052000DE2BF8CFCF93DF9390E0FC01EE55FD4F2B
:10053000249182579D4FFC0184918823C9F090E05B
:10054000880F991FFC01E45AFD4FA591B491FC015D
:10055000EA59FD4FC591D49161110DC09FB7F89430
:100560008C91209582238C938881282328839FBF98
:10057000DF91CF910895623051F49FB7F8943C9188
:10058000822F809583238C93E8812E2BEFCF8FB71A
:10059000F894EC912E2B2C938FBFEACF1F93CF931F
:1005A000DF93182FEB0161E00E949202209739F44B
:1005B00060E0812FDF91CF911F910C946402CF3FB7
:1005C000D10511F461E0F5CFE12FF0E0E059FD4FE6
:1005D000E491E33031F140F4E130B1F0E230E1F0A8
:1005E000C038D1057CF7E4CFE73029F1E83059F184
:1005F000E430B1F780918000806280938000D093D6
:100600008B00C0938A0004C084B5806884BDC7BDD8
:10061000DF91CF911F91089584B5806284BDC8BDDC
:10062000F7CF80918000806880938000D09389000C
:10063000C0938800EDCF8091B00080688093B000B7
:10064000C093B300E5CF8091B00080628093B0008A
:10065000C093B400DDCF3FB7F8948091C20290916F
:10066000C302A091C402B091C50226B5A89B05C0E3
:100670002F3F19F00196A11DB11D3FBFBA2FA92F21
:10068000982F8827BC01CD01620F711D811D911D1E
:1006900042E0660F771F881F991F4A95D1F708958A
:1006A0008F929F92AF92BF92CF92DF92EF92FF9282
:1006B0004B015C010E942B036B017C010E942B0308
:1006C0006C197D098E099F09683E7340810591056B
:1006D000A8F321E0821A9108A108B10888EEC80E9B
:1006E00083E0D81EE11CF11C81149104A104B10423
:1006F00029F7FF90EF90DF90CF90BF90AF909F9041
:100700008F9008952FB7F8946091BE027091BF0248
:100710008091C0029091C1022FBF0895CF92DF92C5
:10072000EF92FF920F931F93CF93DF93CDB7DEB776
:10073000C054D1400FB6F894DEBF0FBECDBF0E94AB
:10074000820300919A0310919B0320919C033091A6
:100750009D036B017C01C01AD10AE20AF30A9701DA
:100760008601003D17402105310590F48091A203D8
:10077000C05CDE4F0FB6F894DEBF0FBECDBFDF9179
:10078000CF911F910F91FF90EF90DF90CF90089540
:1007900060939A0370939B0380939C0390939D03B3
:1007A0001092950310929403109293031092920367
:1007B0001092910362E0809196030E94920261E0A0
:1007C00070E080E090E00E94500361E08091960329
:1007D0000E94920260E0809196030E9464028091E0
:1007E00097038551823020F58BE291E10197F1F773
:1007F00062E0809196030E9492028091A30390E0B0
:100800008230910538F0880F991F880F991F05973E
:100810000197F1F7F89480E00E9487016F3F7F4FC6
:100820008F4F9F4F61F41092A203789480E0A0CF85
:1008300064E170E080E090E00E945003D9CF81E055
:100840000E9487016F3F7F4F8F4F9F4F61F38E0153
:100850000F5F1F4F6E012FEBC21A2EEFD20A7801E5
:1008600080E00E948701F701608371838283938314
:1008700081E00E948701F7016483758386839783F3
:10088000F8E0EF0EF11CEC14FD0451F7789430E021
:1008900020E0F801C080D180E280F380448155815E
:1008A00066817781FFEFCF16DF06EF06FF0631F096
:1008B0004F3F8FEF58076807780719F41092A2038B
:1008C000B5CFF90183E0F595E7958A95E1F7EF5605
:1008D000FC4F8081880FC416D506E606F70610F196
:1008E00080832F5F3F4F085F1F4F2832310589F605
:1008F000409195032091910380919203280F332713
:10090000331F80919303280F311D80919403820F30
:10091000932F911D99274817190681F681E080933E
:10092000A20326CF8160DCCF9091000189130BC018
:10093000E2E9F1E0E4919FEF90930001E13049F0AA
:1009400028F0E23061F060E00C94640210926E00D6
:10095000FACF90916F009D7F90936F00F4CF9091AC
:1009600070009D7F9093700091E09093B000909103
:10097000B100987F94609093B1001092B300E3CFE0
:10098000AF92BF92CF92DF92EF92FF920F931F939D
:10099000CF93DF936C017B018B01040F151FEB01DB
:1009A0005E01AE18BF08C017D10759F06991D60192
:1009B000ED91FC910190F081E02DC6010995892B04
:1009C00079F7C501DF91CF911F910F91FF90EF90C3
:1009D000DF90CF90BF90AF90089542E050E069E182
:1009E00071E086EC92E00C94C004FC0144815581D6
:1009F0006081718186EC92E00C94C004FC01538DFF
:100A0000448D252F30E0842F90E0821B930B5417E8
:100A100010F0CF96089501970895FC01918D828D75
:100A2000981761F0A28DAE0FBF2FB11D5D968C910E
:100A3000928D9F5F9F73928F90E008958FEF9FEF4D
:100A40000895FC01918D828D981731F0828DE80F09
:100A5000F11D858D90E008958FEF9FEF0895FC01C3
:100A6000918D228D892F90E0805C9F4F821B910990
:100A70008F739927089586EC92E00E942F0521E05C
:100A8000892B09F420E0822F089580E090E0892BE3
:100A900029F00E943B0581110C9400000895FC018F
:100AA000A48DA80FB92FB11DA35ABF4F2C91848DCF
:100AB00090E001968F739927848FA689B7892C932C
:100AC000A089B1898C91837080648C93938D848D7F
:100AD000981306C00288F389E02D80818F7D808382
:100AE0000895EF92FF920F931F93CF93DF93EC0142
:100AF00081E0888F9B8D8C8D98131AC0E889F989C5
:100B0000808185FF15C09FB7F894EE89FF896083C7
:100B1000E889F98980818370806480839FBF81E048
:100B200090E0DF91CF911F910F91FF90EF9008958A
:100B3000F62E0B8D10E00F5F1F4F0F731127E02E65
:100B40008C8D8E110CC00FB607FCFACFE889F9899D
:100B5000808185FFF5CFCE010E944F05F1CFEB8D4F
:100B6000EC0FFD2FF11DE35AFF4FF0829FB7F89471
:100B70000B8FEA89FB8980818062CFCF0F931F930F
:100B8000CF93DF938C01D0E0C0E0F801EC0FFD1FA4
:100B90006491662341F086EC92E00E947105892BF6
:100BA00011F02196F2CFCE01DF91CF911F910F91DD
:100BB0000895CF93DF930E94BE05EC010E94ED04DF
:100BC0008C0F9D1FDF91CF910895CF93DF93EC01A0
:100BD000888D8823B9F0AA89BB89E889F9898C9125
:100BE00085FD03C0808186FD0DC00FB607FCF7CFE1
:100BF0008C9185FFF2CF808185FFEDCFCE010E94E1
:100C00004F05E9CFDF91CF9108950F931F93CF93B5
:100C1000DF938C01EB0182E691E00E94BE05C801E2
:100C20000E94F50462E286EC92E00E9471058C81DC
:100C30009D81892B41F06CE286EC92E00E94710567
:100C4000CE010E94F5046DE786EC92E00E947105EA
:100C5000DF91CF911F910F910C94ED04CF93DF930F
:100C6000EC0188819981009711F00E94561A19822F
:100C700018821D821C821B821A82DF91CF910895F7
:100C8000FC0180819181009711F00C94561A08950F
:100C9000AF92BF92CF92DF92EF92FF920F931F938A
:100CA000CF93DF93DC01CD90DC901197C114D10478
:100CB00039F01496CD91DC918C017601209761F486
:100CC000DF91CF911F910F91FF90EF90DF90CF9028
:100CD000BF90AF90089575015701BFEFAB1ABB0AE3
:100CE000F7018081082E000C990B0E942417892B94
:100CF00091F72197CC0DDD1D8881082E000C990BF2
:100D00000E942417892B29F0CE15DF0510F02197BA
:100D1000F3CFAE014F5F5F4F4E195F09D8011596B3
:100D20005C934E931497CE14DF0420F4B701C601F0
:100D30000E94A41BD801ED91FC91119714968D91FE
:100D40009C91E80FF91F1082BBCFFB0144815581B4
:100D5000FC01248135812417350778F08081918149
:100D6000009759F0FB01608171816115710529F0CF
:100D70000E94C81B21E0892B09F020E0822F0895F2
:100D8000FC0124813581232B39F421E0FB01808192
:100D9000882349F020E007C0808191810E94B81B20
:100DA00021E0892BB9F7822F08950F931F93CF93DA
:100DB000DF93EC0188819981009759F02A813B816A
:100DC0002617370730F081E0DF91CF911F910F9107
:100DD00008958B016F5F7F4F0E94DF1A009759F0D3
:100DE000998388831B830A832C813D81232B59F7A8
:100DF000FC011082E8CF80E0E7CFEF92FF920F93E3
:100E00001F93CF93DF936115710541F480E0DF916B
:100E1000CF911F910F91FF90EF90089541155105CB
:100E2000B1F07B01EC010C811D81040F151FB8018D
:100E30000E94D506882351F3288139818C819D81B8
:100E4000B701820F931F0E94C11B1D830C8381E099
:100E5000DECFCF93DF93EC01FB01448155816081AC
:100E600071810E94FD06811103C0CE010E942E06F1
:100E7000CE01DF91CF910895EF92FF920F931F93D0
:100E8000CF93DF93EC017B018A01BA010E94D50662
:100E900081110BC0CE010E942E06CE01DF91CF91B1
:100EA0001F910F91FF90EF9008951D830C83B70160
:100EB000888199810E94C11BF0CFFB010190002025
:100EC000E9F73197AF01461B570B0C943C070F9382
:100ED0001F93CF93DF93CDB7DEB762970FB6F89429
:100EE000DEBF0FBECDBF8C01CB01F8011182108295
:100EF00013821282158214824AE0BE016F5F7F4F17
:100F00000E948214BE016F5F7F4FC8010E945D077F
:100F100062960FB6F894DEBF0FBECDBFDF91CF91C2
:100F20001F910F910895EF92FF920F931F93CF930C
:100F3000DF93CDB7DEB7E3970FB6F894DEBF0FBEF1
:100F4000CDBF7C01CB01BA01F7011182108213825F
:100F50001282158214828E010F5F1F4F21E043E041
:100F60000E943D14009789F0BC01C7010E945D07F3
:100F7000E3960FB6F894DEBF0FBECDBFDF91CF91E1
:100F80001F910F91FF90EF900895C7010E942E06C8
:100F9000EFCFFC011182108213821282158214821B
:100FA000FB0101900020E9F73197AF01461B570B79
:100FB0000C943C076F927F928F929F92AF92BF9258
:100FC000CF92DF92EF92FF920F931F93CF93DF9315
:100FD00000D000D000D0CDB7DEB77C013B01DC01F2
:100FE0001496CD90DC90B12CA12C10E000E00C15F3
:100FF0001D0578F4F701808091806AE370E0C401F8
:10100000800F911F0E94AD1B8C0108191909892BB3
:1010100011F40FEF1FEF0F5F1F4F09F455C0FFEFE3
:10102000AF1ABF0A6A147B0411F758010C151D058D
:1010300078F4D7018D909C906AE370E0C401800F32
:10104000911F0E94AD1B009719F08819990997FD0F
:10105000C6016C018017910710F45C0168016BE117
:1010600071E0CE0101960E94C907F7010481158144
:10107000A016B106F0F4C016D10608F48601D70117
:10108000ED91FC911197E00FF11FD08010826D91CE
:101090007C916A0D7B1DCE0101966115710551F1A0
:1010A0000E945D07F70180819181080F191FD80107
:1010B000DC9289819A81009701F10E945B148B0177
:1010C000CE0101960E944006C80126960FB6F894FC
:1010D000DEBF0FBECDBFDF91CF911F910F91FF906B
:1010E000EF90DF90CF90BF90AF909F908F907F90C8
:1010F0006F9008950E942E06D5CF60E070E0CB017E
:10110000DECF4F925F926F927F928F929F92AF92BB
:10111000BF92CF92DF92EF92FF920F931F93CF93E4
:10112000DF93CDB7DEB7E6970FB6F894DEBF0FBEFC
:10113000CDBF7C016CE171E00E94C006882339F0CC
:101140001092BC0261E085E00E946402C4C066E2C5
:1011500071E0C7010E94C006882321F01092BC02F2
:1011600060E0F1CF60E371E0CE0101960E94C90713
:10117000BE016F5F7F4FC7010E94A506182FCE01E9
:1011800001960E944006112309F441C063E070E01B
:10119000C7010E94DA0710E000E097FD11C063E08C
:1011A00070E0C7010E94DA070FEF10E08F3F910552
:1011B00009F034F463E070E0C7010E94DA078C01A3
:1011C000B80185E00E94CE02B801CE0101960E94CE
:1011D00067076DE371E0CE0183960E94C907BE01E7
:1011E0006F5F7F4FCE0183960E9429078C0166E4D2
:1011F00071E0CE0189960E94C907B801CE01899697
:101200000E940506CE0189960E94400604C562E54B
:1012100071E0CE0101960E94C907BE016F5F7F4F4A
:10122000C7010E94A506182FCE0101960E94400614
:10123000112309F446C062E070E0C7010E94DA079A
:1012400018161906DCF562E070E0C7010E94DA07A3
:1012500012E3C397A4F562E070E0C7010E94DA07C9
:10126000182F092F812F880F8093B70281E0809378
:10127000BC020E9482036055710981099109609343
:10128000B8027093B9028093BA029093BB02612FA7
:10129000702FCE0101960E9467076DE571E0CE01C7
:1012A00083960E94C907BE016F5F7F4FCE01839670
:1012B0000E9429078C0167E671E09BCF11E000E0F6
:1012C000D1CF61E771E0C7010E94C006882381F099
:1012D00084E00E9494046BE171E0CE0101960E94CB
:1012E000C907BE016F5F7F4FC7010E940506B6C2E6
:1012F0006DE771E0CE0101960E94C907BE016F5FE4
:101300007F4FC7010E94A506182FCE0101960E94AB
:101310004006112309F42CC261E070E0C7010E946D
:10132000DA07843691050CF451C061E070E0C70122
:101330000E94DA0781349F410CF04CC061E070E0FC
:10134000C7010E94DA075C0162E070E0C7010E94F9
:10135000DA0704E1802E912C449794F062E070E06B
:10136000C7010E94DA0718E8812E13E1912E89380F
:10137000934134F462E070E0C7010E94DA074C0147
:10138000C401092C000CAA0BBB0B8BAB9CABADAB07
:10139000BEAB80910001843011F18F3F09F497C0FA
:1013A000B501CE0101960E94670765E871E0CE01A4
:1013B00083960E94C907BE016F5F7F4FCE0183965F
:1013C0000E9429078C016BE871E013CF94E6A92EE7
:1013D000B12CBACF80E4A82E8FE1B82EB5CFE2E9C8
:1013E000F1E0149117FDDCCF61E084E00E949202ED
:1013F000112319F0123009F050C12501712C612C14
:1014000060E072E18AE790E0A30195010E945F1815
:101410002FA738AB49AB5AAB69017A0191E0C91AE1
:10142000D108E108F108AFEFCA16D104E104F104D4
:1014300009F00CF406C160E472E48FE090E0A301CF
:1014400095010E945F1869017A01B1E0CB1AD108B9
:10145000E108F108123009F0A9C082E02FEFC216AE
:10146000D104E104F10409F00CF41EC560E970ED4B
:1014700083E090E0A30195010E945F1869017A0161
:1014800081E0C81AD108E108F10883E09FEFC9168E
:10149000D104E104F10409F00CF406C568E478EE27
:1014A00081E090E0A30195010E945F1869017A0133
:1014B000A1E0CA1AD108E108F108BFEFCB16D104A8
:1014C000E104F10411F00CF094C084E0EDC484E078
:1014D00080930001E2E9F1E014911F3F09F460CF2D
:1014E000113021F150F0123009F43EC017FD58CFF1
:1014F00061E084E00E9492027DCF14BC15BC84B5EB
:10150000826084BD85B5816085BDE2E9F2E0E49149
:10151000F0E0EE0FFF1FEA59FD4F85919491E6EA46
:10152000F2E0E491E093A10210E05ECF109280001F
:101530001092810080918100886080938100809169
:101540008100816080938100E2E9F2E0E491F0E0C3
:10155000EE0FFF1FEA59FD4F85919491E6EAF2E004
:10156000E491E093A00240CF1092B0001092B1003D
:101570008091B00082608093B0008091B100816062
:101580008093B100E2E9F2E0E491F0E0EE0FFF1F9A
:10159000EA59FD4F859194919093AC028093AB02F0
:1015A000E6EAF2E0E491E093AD021ECFAFEFCA1697
:1015B000D104E104F10409F00CF46DC068E478EEA4
:1015C00081E090E0A30195010E945F1869017A0112
:1015D000B1E0CB1AD108E108F108112309F431C4B4
:1015E000AFEFCA16D104E104F10411F00CF032C4DB
:1015F0006CCF64E274EF80E090E0A30192010E945E
:101600005F1869017A0181E0C81AD108E108F10880
:1016100085E09FEFC916D104E104F10409F008F454
:1016200043C462E17AE780E090E0A30192010E9466
:101630005F1869017A0181E0C81AD108E108F10850
:101640001AC481E0111130C495B5987F892B85BDEE
:101650008BA99CA9ADA9BEA92FEF3FEFA901892BAA
:101660008A2B8B2B09F055C0113009F45FC0123062
:1016700009F46EC0111194CEC7BC2093A60230931A
:10168000A7024093A8025093A90280916E00826045
:1016900080936E0085CE82E0D5CF712C612C60E006
:1016A00072E18AE790E0A30195010E945F18690149
:1016B0007A01B1E0CB1AD108E108F10891E0C11438
:1016C000D10421E0E206F10484F068E478EE81E0E0
:1016D00090E0A30195010E945F1869017A0181E001
:1016E000C81AD108E108F10893E0113009F0B0CF31
:1016F00080918100887F892B809381008BA99CA990
:10170000ADA9BEA92FEF3FEFA901892B8A2B8B2B07
:1017100069F09501220F331FD4010E94AD1928EE04
:1017200033E040E050E00E94C8189ECFD09289007C
:10173000C09288002093A2023093A3024093A40297
:101740005093A50280916F00826080936F0028CE35
:10175000C092B3002093AE023093AF024093B00228
:101760005093B1028091700082608093700018CE17
:1017700062E971E0C7010E94C006882329F0109237
:10178000B60261E087E0E0CC6EE971E0C7010E943B
:10179000C006882321F01092B60260E0F3CF6AEA17
:1017A00071E0CE0101960E94C907BE016F5F7F4FB5
:1017B000C7010E94A506182FCE0101960E9440067F
:1017C000112309F44EC062E070E0C7010E94DA07FD
:1017D00004E110E0449784F062E070E0C7010E94E9
:1017E000DA0708E813E18938934134F462E070E0E5
:1017F000C7010E94DA078C0161E087E00E94640261
:1018000081E08093B6020E948203012E000C220B1D
:10181000330BDC01CB01800F911FA21FB31F8093FC
:10182000B2029093B302A093B402B093B5026BE1FD
:1018300071E0CE0101960E94C90767EB71E0CE010D
:1018400083960E94C907BE016F5F7F4FCE018396CA
:101850000E940506CE0183960E944006CE010196A5
:1018600095C163EC71E0C7010E94C006882309F4AA
:101870000FC10E948E03882349F0809197038B301B
:1018800028F08D3050F085518230C8F1412C512C18
:1018900050EC652E5FE7752E1EC06091920370E0DC
:1018A00090E080E00E943F172DEC3CEC4CEC5DE3B7
:1018B0000E949E174B015C016091910370E090E0E3
:1018C00080E00E943F179B01AC01C501B4010E945A
:1018D000FA182B013C010E948E03882309F474C07E
:1018E000809197038C3009F47AC0D8F48B3091F151
:1018F000812C912C30ECA32E3FE7B32E55C0609184
:1019000091037091920376276727762790E080E015
:101910000E943D172DEC3CEC4CEC5DE30E949E17C1
:10192000D8CF8551823020F710919303612F70E05A
:10193000762F662766277F7780919403682B90E047
:1019400080E00E943D172DEC3CEC4CEC5DE30E94E6
:101950009E1761C06091930370E090E080E00E9468
:101960003D174B015C011091940317FF0AC0AC01B5
:101970009B0160E070E080E89FEB0E94F9184B014A
:101980005C011F70612F70E090E080E00E943F17C3
:101990002DEC3CEC4CEC5DE30E949E17A5019401FC
:1019A0000E94FA184B015C01A3019201C301B2012C
:1019B0000E949C19811108C0A5019401C501B401C0
:1019C0000E949C19882381F16CEC71E0CE01019694
:1019D0000E94C907CE0101960E9485113FCF109148
:1019E0009303612F70E090E080E00E943D174B016F
:1019F0005C01609194036F7070E090E080E00E9461
:101A00003F172DEC3CEC4CEC5DE30E949E17A501CA
:101A100094010E94FA184B015C0117FFC5CFB7FA79
:101A2000B094B7F8B094C0CFB301A201CE01019633
:101A30000E949307B501A401CE0183960E949307EB
:101A40006CED71E0CE0189960E94C907BE016D5D03
:101A50007F4FCE0189960E9429078C014CE050E00F
:101A600064EE71E00E94FD06811103C0C8010E946E
:101A70002E06BE016F5F7F4FC8010E942907BC017F
:101A8000C7010E940506CE0189960E944006E2CE5B
:101A900061EF71E0C7010E94C006882309F48FC07E
:101AA00060E08AE00E94640283E090E00197F1F731
:101AB00061E08AE00E94640283E290E00197F1F71E
:101AC00060E08AE00E946402EDEAF2E06491E9E9F4
:101AD000F2E0E491F0E0EE0FFF1FEC57FD4F85912F
:101AE000949100E315E720E030E0462F0E941511A5
:101AF0006115710581059105E1F06F5F7F4F8F4F93
:101B00009F4F9F70611571058105910591F00E94AD
:101B10003D1728E23EE74CE05DE30E949E1720E07F
:101B200030E040E05FE30E949E170E94661997FF35
:101B300003C06EEF71E04ACF1CA21BA21EA21DA221
:101B400018A61FA22AE0AE014F5F5F4F0E948D14BE
:101B5000BE016F5F7F4FCE0183960E945D0761E1FA
:101B600072E0CE0101960E94C907BE016D5D7F4FF4
:101B7000CE0101960E942907BC01C7010E940506FB
:101B8000CE0101960E944006CE0183960E94400637
:101B9000E6960FB6F894DEBF0FBECDBFDF91CF91B2
:101BA0001F910F91FF90EF90DF90CF90BF90AF907B
:101BB0009F908F907F906F905F904F9008956DE110
:101BC00072E0C7010E94C006882351F180E480932F
:101BD0007C0080917A00806480937A0080917A0002
:101BE00086FDFCCF6091780070917900CE0101965E
:101BF0000E94670765E272E0CE0183960E94C907E2
:101C0000BE016F5F7F4FCE0183960E942907BC0102
:101C1000C7010E940506CE0183960E9440061ECE93
:101C20006CE272E0CE0101960E94C907BE016F5FAF
:101C30007F4FC7010E94A506182FCE0101960E9472
:101C40004006112391F161E070E0C7010E94DA07BC
:101C500010E000E097FD10C061E070E0C7010E9455
:101C6000DA0704EB10E0853B910534F461E070E0A5
:101C7000C7010E94DA078C01C8010E94BF01B801A8
:101C8000CE0101960E94670763E372E0CE0183965E
:101C90000E94C907BE016F5F7F4FCE0183960E94ED
:101CA00029078C016CE372E0A4CA62E472E0CE0101
:101CB00001960E94C907BE016F5F7F4FC7010E9456
:101CC000A506182FCE0101960E944006112399F116
:101CD00062E070E0C7010E94DA0710E000E097FDC3
:101CE00010C062E070E0C7010E94DA0704E610E06D
:101CF0008536910534F462E070E0C7010E94DA078E
:101D00008C01B80181E00E945A11B801CE01019600
:101D10000E9467076DE472E0CE0183960E94C907B6
:101D2000BE016F5F7F4FCE0183960E9429078C0111
:101D300066E572E05ECA60E672E0CE0101960E943E
:101D4000C907BE016F5F7F4FC7010E94A506182F0C
:101D5000CE0101960E944006112399F162E070E0E5
:101D6000C7010E94DA0710E000E097FD10C062E0B2
:101D700070E0C7010E94DA0704E610E0853691059D
:101D800034F462E070E0C7010E94DA078C01B80108
:101D900080E00E945A11B801CE0101960E946707A7
:101DA0006DE472E0CE0183960E94C907BE016F5FA9
:101DB0007F4FCE0183960E9429078C016BE672E06B
:101DC00018CA65E772E0C7010E94C006882361F067
:101DD00070E060E086E00E94CE0260E08CE00E944D
:101DE000640260E08DE0B0C960E872E0CE01019667
:101DF0000E94C907B701CE0101960E9429070E94DF
:101E00008511CE0101960E944006C2CE84E09FEF6C
:101E1000C916D104E104F10409F008F415CCCFA4EB
:101E2000D8A8E9A8FAA88AE0F594E794D794C794CB
:101E30008A95D1F781E0C81AD108E108F10885E058
:101E400003CC83E09FEFC916D104E104F10409F04B
:101E50000CF4FACB62E17AE780E090E0A301920112
:101E60000E945F1869017A01A1E0CA1AD108E1084D
:101E7000F108112359F286E02FEFC216D104E104D4
:101E8000F10491F088F0CFA4D8A8E9A8FAA89AE0C4
:101E9000F594E794D794C7949A95D1F7B1E0CB1A0B
:101EA000D108E108F10887E09091B100987F892B73
:101EB0008093B100CDCB1F920F920FB60F921124D9
:101EC0002F933F938F939F93AF93BF938091BE02C5
:101ED0009091BF02A091C002B091C1023091BD02A9
:101EE00023E0230F2D3758F50196A11DB11D209336
:101EF000BD028093BE029093BF02A093C002B09334
:101F0000C1028091C2029091C302A091C402B0911B
:101F1000C5020196A11DB11D8093C2029093C30218
:101F2000A093C402B093C502BF91AF919F918F91CE
:101F30003F912F910F900FBE0F901F90189526E89C
:101F4000230F0296A11DB11DD2CF1F920F920FB683
:101F50000F9211242F933F934F935F936F937F932F
:101F60008F939F93AF93BF93EF93FF938091AE02B4
:101F70009091AF02A091B002B091B102892B8A2B4F
:101F80008B2BD1F19091AD02E091AB02F091AC02BC
:101F90008081892780838091AE029091AF02A091C9
:101FA000B002B091B102181619061A061B069CF46D
:101FB0008091AE029091AF02A091B002B091B102B7
:101FC0000197A109B1098093AE029093AF02A0934B
:101FD000B002B093B102FF91EF91BF91AF919F9189
:101FE0008F917F916F915F914F913F912F910F90C2
:101FF0000FBE0F901F901895809100010E949404CD
:10200000EACF1F920F920FB60F9211242F933F9396
:102010004F935F936F937F938F939F93AF93BF93F0
:10202000EF93FF9386EC92E00E944F05FF91EF91B2
:10203000BF91AF919F918F917F916F915F914F91E0
:102040003F912F910F900FBE0F901F9018951F92E8
:102050000F920FB60F9211242F938F939F93EF93AC
:10206000FF93E091D602F091D7028081E091DC02EB
:10207000F091DD0282FD1BC090818091DF028F5FB5
:102080008F732091E002821741F0E091DF02F0E0CF
:10209000EA53FD4F958F8093DF02FF91EF919F915F
:1020A0008F912F910F900FBE0F901F9018958081E8
:1020B000F4CF1F920F920FB60F9211242F933F93DC
:1020C0004F935F936F937F938F939F93AF93BF9340
:1020D000CF93DF93EF93FF938091AA02C091870380
:1020E000D0E087FF24C01092850010928400809178
:1020F000AA028F5F8093AA028091AA02082E000C88
:10210000990B8C179D0724F48091AA028C30C4F19E
:102110008091840090918500049680349C4908F455
:102120007AC08091840090918500049676C0809159
:10213000AA02082E000C990B8C179D07C4F6E0919B
:10214000AA028E2FEE0F990BFC01EE0FFF1FE80F76
:10215000F91FED59FC4F808186FFC9CFE091AA029B
:102160008E2FEE0F990BFC01EE0FFF1FE80FF91FEA
:10217000ED59FC4F808160E08F730E946402B7CFFD
:102180002091840030918500E091AA028E2FEE0FFD
:10219000990BFC01EE0FFF1FE80FF91FED59FC4FE3
:1021A00081819281820F931F909389008093880090
:1021B000E091AA028E2FEE0F990BFC01EE0FFF1F8C
:1021C000E80FF91FED59FC4F808186FF11C0E091A7
:1021D000AA028E2FEE0F990BFC01EE0FFF1FE80FE6
:1021E000F91FED59FC4F808161E08F730E946402FA
:1021F000FF91EF91DF91CF91BF91AF919F918F911F
:102200007F916F915F914F913F912F910F900FBEF2
:102210000F901F90189580E49CE99093890080931B
:1022200088008FEF8093AA02E3CFCF92DF92EF92E4
:10223000FF920F931F93E82FF92F05C0015011094A
:102240002109310961F1908196239417B9F305C0F2
:10225000015011092109310911F19081962394133C
:10226000F7CFC12CD12CE12CF12C0AC08FEFC81A6A
:10227000D80AE80AF80A0C151D052E053F0579F065
:1022800080818623841791F36C2D7D2D8E2D9F2DBB
:102290001F910F91FF90EF90DF90CF90089560E035
:1022A00070E080E090E01F910F91FF90EF90DF9041
:1022B000CF9008951F93CF93DF93C82F162FD72F5A
:1022C000682F8CE00E94640261E06C278DE00E9420
:1022D0006402A12FBD2FA536B10514F0A4E6B0E02D
:1022E000B7FF02C0B0E0A0E02FEF30E00E94AD19D0
:1022F00024E630E040E050E00E945F18B90186E03B
:10230000DF91CF911F910C94CE02CF93DF93EC011C
:102310008CE791E00E94BE05CE010E94F50489E79A
:1023200091E0DF91CF910C94D9051092C9021092DF
:10233000C80288EE93E0A0E0B0E08093CA029093D8
:10234000CB02A093CC02B093CD028BE091E09093AE
:10235000C7028093C60285EC90E09093D3028093ED
:10236000D20284EC90E09093D5028093D40280EC6A
:1023700090E09093D7028093D60281EC90E0909306
:10238000D9028093D80282EC90E09093DB02809394
:10239000DA0286EC90E09093DD028093DC021092EA
:1023A000DF021092E0021092E1021092E20282E05B
:1023B0008093960386E180939703E4EAF2E0E49148
:1023C000E0939803E0E9F2E0E491E093990380E878
:1023D0009EE3A0E0B0E080939E0390939F03A093C0
:1023E000A003B093A103809187038C30C0F491E0E7
:1023F000980F9093870380938E0390E0FC01EE0F7B
:10240000FF1FE80FF91FED59FC4F88EB9BE092830B
:1024100081836BE171E088E893E00C94C9078FEF4A
:1024200080938E03F6CFCF93DF9300D000D000D0FF
:10243000CDB7DEB7789484B5826084BD84B5816001
:1024400084BD85B5826085BD85B5816085BD80917F
:102450006E00816080936E001092810080918100F7
:1024600082608093810080918100816080938100EF
:10247000809180008160809380008091B1008460B1
:102480008093B1008091B00081608093B000809112
:102490007A00846080937A0080917A0082608093D1
:1024A0007A0080917A00816080937A0080917A002E
:1024B000806880937A001092C100E091D602F0917A
:1024C000D70282E08083E091D202F091D3021082A1
:1024D000E091D402F091D50280E180831092DE0277
:1024E000E091DA02F091DB0286E08083E091D8028D
:1024F000F091D902808180618083E091D802F091CF
:10250000D902808188608083E091D802F091D9025D
:10251000808180688083E091D802F091D902808127
:102520008F7D808360E670E088E893E00E94D506A6
:1025300061E085E00E94920261E084E00E949202E4
:1025400061E087E00E94920261E08AE00E949202CC
:1025500060E08BE00E94920261E08CE00E949202B7
:1025600061E08DE00E94920261E086E00E949202AA
:1025700080918E038C3008F051C061E089E00E94A8
:10258000920280918E03282F30E0F901EE0FFF1F99
:10259000E20FF31FED59FC4F9081907C996090837E
:1025A00010928F03109290032CE0622F0E94A119C9
:1025B000829FB001112430E020E0AB01420F531F95
:1025C000FA01EE0FFF1FE40FF51FED59FC4F90814C
:1025D00096FD16C02F5F3F4F2C30310571F78111EA
:1025E0000FC01092800082E08093810010928500DD
:1025F00010928400B19A80916F00826080936F0086
:10260000E0918E038E2F90E0FC01EE0FFF1FE80F8C
:10261000F91FED59FC4F8081806480838AE590E04A
:102620000E94BF0162E0809196030E9492020E9484
:102630008203605D77408109910960939A037093EA
:102640009B0380939C0390939D0387E38093A30354
:1026500064EF71E080E090E00E94500383E991E034
:102660000E94D90505E712E097EAE92E92E0F92EDB
:1026700023E9C22E22E0D22E30E0A32E30E0B32E8A
:102680000E9482032B013C018091BC02882309F443
:102690004DC08091B8029091B902A091BA02B09158
:1026A000BB02A3019201281B390B4A0B5B0BDA0119
:1026B000C90180359105A105B10508F437C04092E4
:1026C000B8025092B9026092BA027092BB02F8014D
:1026D0008491F7019490F601849070E060E0882086
:1026E00099F081110E943B02E82DF0E0EE0FFF1FF0
:1026F000EC57FD4FA591B4918C91982291E080E028
:1027000009F490E0692F782FF1E06F2785E00E94AF
:1027100064028091B70281508093B702811106C094
:102720001092BC0260E085E00E9464028091B602D3
:102730008823A1F08091B2029091B302A091B402DB
:10274000B091B502481A590A6A0A7B0A77FC06C09A
:102750001092B60260E087E00E94640286EC92E08C
:102760000E942F05892B09F478C086EC92E00E9424
:102770000D058A3009F05AC088E893E00E944806A7
:1027800040918C0350918D0341155105C1F11A827E
:1027900019821C821B821E821D82609188037091A7
:1027A00089036115710521F0CE0101960E943C0755
:1027B000CE0101960E94480689809A808114910476
:1027C00071F0F40181914F01882349F0082E000C2B
:1027D000990B0E949C1BF40131978083F2CF62E930
:1027E00072E0CE0101960E94C006882379F080E352
:1027F00092E00E94D905CE0101960E9440066BE14D
:1028000071E088E893E00E945D07A8CF67E972E075
:10281000CE0101960E94C006882319F080ED91E058
:10282000E8CFCE0101960E948108E5CF8D3009F4F2
:1028300095CF20918C0330918D032F35310508F011
:102840008DCF89831A8241E050E0BE016F5F7F4FD8
:1028500088E893E00E94FD0681CFA114B10409F439
:102860000FCF0E943B05882309F40ACF0E94000085
:1028700007CF88E893E00C944006EF920F931F93E4
:10288000CF93DF93E80134E047FD34E1042E000CE0
:10289000550B57FF03C0519541955109E32E022F67
:1028A000242FAE010E94ED14CE01DF91CF911F9134
:1028B0000F91EF9008951F93FC0199278827BC0181
:1028C000E89411911032E9F3193010F01E30C8F37A
:1028D0001B3251F01D3249F4689406C00E949C14CA
:1028E000610F711D811D911D119110531A30B0F3AC
:1028F0003EF490958095709561957F4F8F4F9F4FD7
:102900001F910895BB274A3031F4992322F4BDE288
:10291000909581959F4F0C94D414BB272A3051F485
:10292000992342F4BDE290958095709561957F4F13
:102930008F4F9F4F0C94B214592F482F372F262FAB
:10294000660F771F881F991F660F771F881F991FB3
:10295000620F731F841F951F660F771F881F991FB3
:102960000895BB27FA01A62F62177105810591050D
:10297000330B30FB66F0AA27660F771F881F991F5D
:10298000AA1FA21710F0A21B63953850A9F7A05DEB
:10299000AA3308F0A95DA19336F7B111B193108263
:1029A000CA010C942D17BB27FB015527AA27880FB6
:1029B000991FAA1FA41710F0A41B83955051B9F7B3
:1029C000A05DAA3308F0A95DA193009779F7B11132
:1029D000B1931192CB010C942D17A9E0B0E0E3EF75
:1029E000F4E10C9497186A01F22EB02E102FFBE33D
:1029F000AF2EA01608F41BE31F5F012F27E0AE01E6
:102A00004F5F5F4F0E944C16BC018981982F9970CF
:102A1000913009F43FC09BE2E1FC04C09E2D91700F
:102A2000E0FC3AC05E2D5071E82FE87083FF46C08D
:102A300084E0911101C083E0EF2DE81B8F1508F0B1
:102A4000E0E0D6018E2F20E2552351F1992329F0A1
:102A5000D6019C93C60101966C0196012D5F3F4FF4
:102A6000E2FE24C08EE4D6018C9391E411969C93EF
:102A7000119712968C93D9018E2F90E281111BC071
:102A8000E20FF32FF11D10828EEF9FEF2996ECE0FD
:102A90000C94B3189DE2C6CF90E2C4CF2D93815021
:102AA0008111FCCFCE0ED11CE0E0D0CF8EE6D60156
:102AB0008C9391E6DBCF9D938150E0CF482F4470FB
:102AC00082FF3DC084E0911101C083E08F1510F4B6
:102AD000EF2DE81BD6018E2F20E2552309F1992313
:102AE00029F0D6019C93C60101966C0196012D5FD9
:102AF0003F4FE2FE1BC089E4D6018C938EE4119611
:102B00008C93119786E412968C93D9018E2F90E2C4
:102B1000882309F4B5CF9D938150FACF2D9381502E
:102B20008111FCCFCE0ED11CE0E0D9CF89E6D601D1
:102B30008C938EE611968C93119786E6E4CF9B01D9
:102B400077FF02C030E020E0A1E0B0E0911102C0C8
:102B5000B0E0A0E0F9013196AE0FBF1F8B2C912C95
:102B6000BB2009F461C05401EFEFAE1ABE0AAA0DF2
:102B7000BB1DFA161B0619F014F04F2D4A1B5111FC
:102B800088C0E3FC59C07601A42FB0E2A1114FC068
:102B9000C40ED11C992309F45BC040E0D601119604
:102BA000F60190836D01552309F448C0012F060FEB
:102BB0009A81582F507184FF03C0913309F401505A
:102BC00010160CF047C0093008F008E0EEE2FE2EC7
:102BD0005B01A01AB10885019194819491082F3F5F
:102BE000320729F4D601FC92F60131966F01621783
:102BF000730794F1021713077CF5DB01A21BB30BDB
:102C0000AA24A394B12CAC0EBD1EAA0DBB1D119617
:102C10008C9121503109D601119628153905F4F00F
:102C2000F60180836D01DBCFB12CA12CA0CFF70181
:102C3000B1937F01A150AACF9111B0CFD601942FAB
:102C400050E302C05D9391509111FCCFC40ED11C92
:102C500040E0ACCF01E0BACF80E3DBCF621773076F
:102C600031F4963388F4953311F4552369F0F60165
:102C70008083FD01842F90E2811108C0A40FB11D53
:102C80001C9290E080E002CF81E3F1CF91938150DC
:102C9000F3CF911183CF8ACF283008F027E0332774
:102CA000DA01990F311D87FD91600096610571056C
:102CB00039F432602E5F3D9330E32A95E1F70895B1
:102CC0009F3F30F080387105610509F03C5F3C5F43
:102CD0003D93913008F08068911DDF93CF931F934F
:102CE0000F93FF92EF92192F987F9695E92F969563
:102CF0009695E90FFF27EE53FF4F99273327EE24D0
:102D0000FF24A701E70105900894079428F4360FE3
:102D1000E71EF81E491F511D660F771F881F991F58
:102D20000694A1F70590079428F4E70EF81E491FB2
:102D3000561FC11D770F881F991F661F0694A1F7A4
:102D40000590079428F4F80E491F561FC71FD11D80
:102D5000880F991F661F771F0694A1F705900794A7
:102D600020F4490F561FC71FD81F990F661F771FE2
:102D7000881F0694A9F784911095177041F0D69595
:102D8000C79557954795F794E7941A95C1F7E8E6E4
:102D9000F0E06894159015913591659195910590A5
:102DA0007FE27395E118F10A430B560BC90BD0096A
:102DB000C0F7E10CF11E431F561FC91FD01D7EF442
:102DC000703311F48A95E6CFE894015030F0080F83
:102DD0000AF40027021708F4202F2395022F7A33D4
:102DE00028F079E37D932A95E9F710C07D932A9521
:102DF00089F6069497956795379517951794E11876
:102E0000F10A430B560BC90BD00998F023957E911C
:102E100073957A3308F070E37C932013B8F77E91B2
:102E200070617D9330F0839571E37D9370E32A9513
:102E3000E1F71124EF90FF900F911F91CF91DF9157
:102E4000992787FD9095089591110C940B18803265
:102E500019F089508550C8F70895DC01FC01672FEF
:102E600071917723E1F7329704C07C916D93708361
:102E70006291AE17BF07C8F30895E89409C097FBA5
:102E80003EF490958095709561957F4F8F4F9F4F41
:102E90009923A9F0F92F96E9BB279395F695879585
:102EA00077956795B795F111F8CFFAF4BB0F11F448
:102EB00060FF1BC06F5F7F4F8F4F9F4F16C08823EF
:102EC00011F096E911C0772321F09EE8872F762F25
:102ED00005C0662371F096E8862F70E060E02AF066
:102EE0009A95660F771F881FDAF7880F9695879552
:102EF00097F90895990F0008550FAA0BE0E8FEEF27
:102F000016161706E807F907C0F012161306E407AD
:102F1000F50798F0621B730B840B950B39F40A26A6
:102F200061F0232B242B252B21F408950A2609F484
:102F3000A140A6958FEF811D811D08950E94B117B4
:102F40000C9425180E94171838F00E941E1820F0C3
:102F5000952311F00C940E180C94141811240C9451
:102F600059180E94361870F3959FC1F3950F50E0E1
:102F7000551F629FF001729FBB27F00DB11D639F2B
:102F8000AA27F00DB11DAA1F649F6627B00DA11DD1
:102F9000661F829F2227B00DA11D621F739FB00D77
:102FA000A11D621F839FA00D611D221F749F3327E7
:102FB000A00D611D231F849F600D211D822F762F80
:102FC0006A2F11249F5750409AF0F1F088234AF05D
:102FD000EE0FFF1FBB1F661F771F881F91505040C9
:102FE000A9F79E3F510580F00C940E180C945918C7
:102FF0005F3FE4F3983ED4F3869577956795B79550
:10300000F795E7959F5FC1F7FE2B880F911D969569
:10301000879597F9089599278827089597F99F67C5
:1030200080E870E060E008959FEF80EC0895002450
:103030000A941616170618060906089500240A941D
:1030400012161306140605060895092E0394000CA3
:1030500011F4882352F0BB0F40F4BF2B11F460FF32
:1030600004C06F5F7F4F8F4F9F4F089557FD90585B
:10307000440F551F59F05F3F71F04795880F97FB3C
:10308000991F61F09F3F79F08795089512161306F6
:103090001406551FF2CF4695F1DF08C01616170625
:1030A0001806991FF1CF869571056105089408955A
:1030B000E894BB2766277727CB0197F90895052E5B
:1030C00097FB1EF400940E94761857FD07D00E94CB
:1030D000C81807FC03D04EF40C9476185095409510
:1030E000309521953F4F4F4F5F4F089590958095B4
:1030F000709561957F4F8F4F9F4F08950E94EA18FA
:10310000A59F900DB49F900DA49F800D911D11243B
:103110000895B7FF0C947E180E947E18821B930BB3
:1031200008952F923F924F925F926F927F928F926B
:103130009F92AF92BF92CF92DF92EF92FF920F9346
:103140001F93CF93DF93CDB7DEB7CA1BDB0B0FB650
:10315000F894DEBF0FBECDBF09942A88398848880D
:103160005F846E847D848C849B84AA84B984C884A3
:10317000DF80EE80FD800C811B81AA81B981CE0F9A
:10318000D11D0FB6F894DEBF0FBECDBFED0108957F
:10319000A1E21A2EAA1BBB1BFD010DC0AA1FBB1F5B
:1031A000EE1FFF1FA217B307E407F50720F0A21BCD
:1031B000B30BE40BF50B661F771F881F991F1A943A
:1031C00069F760957095809590959B01AC01BD0164
:1031D000CF010895A29FB001B39FC001A39F700DBE
:1031E000811D1124911DB29F700D811D1124911D0F
:1031F00008955058BB27AA270E9411190C9425182E
:103200000E94171838F00E941E1820F039F49F3FD2
:1032100019F426F40C9414180EF4E095E7FB0C94C2
:103220000E18E92F0E94361858F3BA176207730771
:103230008407950720F079F4A6F50C9458180EF43D
:10324000E0950B2EBA2FA02D0B01B90190010C01B6
:10325000CA01A0011124FF27591B99F0593F50F4CE
:10326000503E68F11A16F040A22F232F342F442726
:10327000585FF3CF469537952795A795F04053951E
:10328000C9F77EF41F16BA0B620B730B840BBAF0EE
:103290009150A1F0FF0FBB1F661F771F881FC2F759
:1032A0000EC0BA0F621F731F841F48F4879577956D
:1032B0006795B795F7959E3F08F0B0CF9395880F27
:1032C00008F09927EE0F9795879508950E946D193C
:1032D0006894B1110C94591808950E943E1888F012
:1032E0009F5798F0B92F9927B751B0F0E1F0660FCA
:1032F000771F881F991F1AF0BA95C9F714C0B1300B
:1033000091F00E945818B1E008950C945818672F56
:10331000782F8827B85F39F0B93FCCF38695779539
:103320006795B395D9F73EF4909580957095619522
:103330007F4F8F4F9F4F08950E947A17880B990BEC
:103340000895991B79E004C0991F961708F0961B01
:10335000881F7A95C9F7809508950E94EA18B7FFEB
:103360000895821B930B0895EE0FFF1F0590F491B3
:10337000E02D09940F931F93CF93DF938230910533
:1033800010F482E090E0E091A603F091A70330E012
:1033900020E0B0E0A0E0309799F42115310509F460
:1033A0004AC0281B390B24303105D8F58A819B810E
:1033B0006115710589F1FB0193838283FE0111C0C0
:1033C000408151810281138148175907E0F0481765
:1033D000590799F4109761F012960C93129713966F
:1033E0001C933296CF01DF91CF911F910F910895D9
:1033F0000093A6031093A703F4CF2115310551F0D4
:103400004217530738F0A901DB019A01BD01DF0122
:10341000F801C1CFEF01F9CF9093A7038093A603E2
:10342000CDCFFE01E20FF31F81939193225031091A
:1034300039832883D7CF2091A4033091A503232B70
:1034400041F420910301309104013093A5032093AE
:10345000A40320910101309102012115310541F4AD
:103460002DB73EB74091050150910601241B350B45
:10347000E091A403F091A503E217F307A0F42E1B3B
:103480003F0B2817390778F0AC014E5F5F4F2417C8
:10349000350748F04E0F5F1F5093A5034093A403D8
:1034A000819391939FCFF0E0E0E09CCFCF93DF93A7
:1034B0000097E9F0FC01329713821282A091A603D3
:1034C000B091A703ED0130E020E01097A1F4208136
:1034D0003181820F931F2091A4033091A5032817F7
:1034E000390709F061C0F093A503E093A403DF91CD
:1034F000CF910895EA01CE17DF07E8F54A815B8195
:103500009E0141155105B1F7E901FB83EA83499119
:103510005991C40FD51FEC17FD0761F4808191818B
:103520000296840F951FE901998388838281938194
:103530009B838A83F0E0E0E012968D919C91139733
:103540000097B9F52D913C911197CD010296820F0C
:10355000931F2091A4033091A5032817390739F64A
:10356000309751F51092A7031092A603B093A503CC
:10357000A093A403BCCFD383C28340815181840F25
:10358000951FC817D90761F44E5F5F4F88819981F5
:10359000480F591F518340838A819B819383828383
:1035A0002115310509F0B0CFF093A703E093A603EE
:1035B0009ECFFD01DC01C0CF13821282D7CFB0E0D5
:1035C000A0E0E5EEFAE10C9493188C01009751F419
:1035D000CB010E94BA198C01C801CDB7DEB7E0E17A
:1035E0000C94AF18FC01E60FF71F9C012250310923
:1035F000E217F30708F49DC0D901CD91DC91119732
:10360000C617D70798F0C530D10530F3CE0104971F
:103610008617970708F3C61BD70B2297C193D19340
:103620006D937C93CF010E94561AD6CF5B01AC1AE2
:10363000BD0A4C018C0E9D1EA091A603B091A7035C
:10364000512C412CF12CE12C109731F58091A403E1
:103650009091A5038815990509F05CC04616570698
:1036600008F058C08091010190910201009741F447
:103670008DB79EB74091050150910601841B950BB3
:10368000E817F90708F055C0F093A503E093A403E9
:10369000F90171836083A0CF8D919C91119712964F
:1036A0006C90129713967C901397A815B90559F54D
:1036B0006C0142E0C40ED11CCA14DB0420F1AC0141
:1036C0004A195B09DA011296159780F062827382BB
:1036D00051834083D9016D937C93E114F10471F01F
:1036E000D7011396FC93EE93129776CF22968C0F08
:1036F0009D1FF90191838083F301EFCFF093A7031E
:10370000E093A60369CF4816590608F42C017D0101
:10371000D3019ACFCB010E94BA197C01009749F0DE
:10372000AE01B8010E94A41BC8010E94561A87016D
:1037300053CF10E000E050CF9111089581568A5187
:1037400008F4805285580895FB01DC0102C0019005
:103750000D9241505040D8F70895FC018191861791
:1037600021F08823D9F7992708953197CF0108953B
:10377000FB01DC018D91019080190110D9F3990BA7
:103780000895FB01DC0101900D920020E1F70895FE
:10379000FB01DC014150504030F08D9101908019C7
:1037A00019F40020B9F7881B990B089511E0CCE5B6
:1037B000D1E004C0FE010E94B4192196CD35D10795
:0637C000C9F7F894FFCFE9
:1037C600FF0000A8038000000000007105C004FE91
:1037D60004E5052F050D0521050D0A005345543A4C
:1037E6004C45443A31005345543A4C45443A30002E
:1037F6005345543A4C45443A50574D3A0022766167
:103806006C7565223A005345543A4C45443A505734
:103816004D00424C494E4B3A4C45443A002263799E
:10382600636C6573223A00424C494E4B3A4C454410
:103836000042555A5A45523A53544F500042555A2F
:103846005A45523A0022687A223A0042555A5A4557
:1038560052005345543A52454C41593A310053456A
:10386600543A52454C41593A300050554C53453A1A
:1038760052454C41593A0050554C53453A52454CE5
:103886004159004745543A54454D50004448542048
:1038960072656164206661696C6564002274656D99
:1038A60070223A002C2268756D6964697479223A2F
:1038B600004745543A44495354414E434500556CDC
:1038C600747261736F6E69632074696D656F757468
:1038D600002264697374616E6365223A0047455439
:1038E6003A4C445200226C6472223A0053455256B6
:1038F6004F3A0022616E676C65223A005345525674
:103906004F004D4F544F523A4657443A0022737077
:10391600656564223A004D4F544F523A465744006B
:103926004D4F544F523A5245563A004D4F544F520E
:103936003A524556004D4F544F523A53544F500049
:10394600556E6B6E6F776E20636F6D6D616E643A48
:10395600200050494E47004745543A494E464F00CD
:00000001FF
